:020000040000fa
:080000000002040000000000f2
:020000040000fa
:040008002e060000c0
:020000040000fa
:04000c002e060000bc
:020000040000fa
:040010002e060000b8
:020000040000fa
:040014002e060000b4
:020000040000fa
:040018002e060000b0
:020000040000fa
:04001c002e060000ac
:020000040000fa
:040020002e060000a8
:020000040000fa
:040024002e060000a4
:020000040000fa
:040028007805000057
:020000040000fa
:04002c002e0600009c
:020000040000fa
:04003000b205000015
:020000040000fa
:040034007a0400004a
:020000040000fa
:040038002e06000090
:020000040000fa
:04003c002e0600008c
:020000040000fa
:04004000e8050000cf
:020000040000fa
:04004400b404000000
:020000040000fa
:04004800f4040000bc
:020000040000fa
:04004c002e0600007c
:020000040000fa
:040050002e06000078
:020000040000fa
:04005400e8020000be
:020000040000fa
:04005800e0020000c2
:020000040000fa
:04005c002e0600006c
:020000040000fa
:040060002e06000068
:020000040000fa
:040064002e06000064
:020000040000fa
:040068005c03000035
:020000040000fa
:04006c002e0600005c
:020000040000fa
:040070002e06000058
:020000040000fa
:040074002e06000054
:020000040000fa
:040078002e06000050
:020000040000fa
:04007c002e0600004c
:020000040000fa
:040080002e06000048
:020000040000fa
:040084002e06000044
:020000040000fa
:040088002e06000040
:020000040000fa
:04008c00f00500007b
:020000040000fa
:040090002606000040
:020000040000fa
:04009400180500004b
:020000040000fa
:040098002e06000030
:020000040000fa
:04009c002e0600002c
:020000040000fa
:0400a0002e06000028
:020000040000fa
:0400a4002e06000024
:020000040000fa
:0400a8002e06000020
:020000040000fa
:0400ac002e0600001c
:020000040000fa
:0400b0002e06000018
:020000040000fa
:0400b4002e06000014
:020000040000fa
:0400b8002e06000010
:020000040000fa
:0400bc002e0600000c
:020000040000fa
:0400c0002e06000008
:020000040000fa
:0400c4002e06000004
:020000040000fa
:0400c8002e06000000
:020000040000fa
:0400cc002e060000fc
:020000040000fa
:0400d0002e060000f8
:020000040000fa
:0400d4002e060000f4
:020000040000fa
:0400d8002e060000f0
:020000040000fa
:0400dc002e060000ec
:020000040000fa
:0400e0002e060000e8
:020000040000fa
:0400e4002e060000e4
:020000040000fa
:0400e8002e060000e0
:020000040000fa
:0400ec002e060000dc
:020000040000fa
:0400f0002e060000d8
:020000040000fa
:0400f4002e060000d4
:020000040000fa
:0400f8002e060000d0
:020000040000fa
:0400fc002e060000cc
:020000040000fa
:040100002e060000c7
:020000040000fa
:040104002e060000c3
:020000040000fa
:040108002e060000bf
:020000040000fa
:04010c002e060000bb
:020000040000fa
:040110002e060000b7
:020000040000fa
:040114002e060000b3
:020000040000fa
:040118002e060000af
:020000040000fa
:04011c002e060000ab
:020000040000fa
:040120002e060000a7
:020000040000fa
:040124002e060000a3
:020000040000fa
:040128002e0600009f
:020000040000fa
:04012c002e0600009b
:020000040000fa
:040130002e06000097
:020000040000fa
:040134002e06000093
:020000040000fa
:040138002e0600008f
:020000040000fa
:04013c002e0600008b
:020000040000fa
:040140002e06000087
:020000040000fa
:040208002e060000be
:020000040000fa
:04020c002e060000ba
:020000040000fa
:040210002e060000b6
:020000040000fa
:040214002e060000b2
:020000040000fa
:040218002e060000ae
:020000040000fa
:04021c002e060000aa
:020000040000fa
:040220002e060000a6
:020000040000fa
:040224002e060000a2
:020000040000fa
:040228007805000055
:020000040000fa
:04022c002e0600009a
:020000040000fa
:04023000b205000013
:020000040000fa
:040234007a04000048
:020000040000fa
:040238002e0600008e
:020000040000fa
:04023c002e0600008a
:020000040000fa
:04024000e8050000cd
:020000040000fa
:04024400b4040000fe
:020000040000fa
:04024800f4040000ba
:020000040000fa
:04024c002e0600007a
:020000040000fa
:040250002e06000076
:020000040000fa
:04025400e8020000bc
:020000040000fa
:04025800e0020000c0
:020000040000fa
:04025c002e0600006a
:020000040000fa
:040260002e06000066
:020000040000fa
:040264002e06000062
:020000040000fa
:040268005c03000033
:020000040000fa
:04026c002e0600005a
:020000040000fa
:040270002e06000056
:020000040000fa
:040274002e06000052
:020000040000fa
:040278002e0600004e
:020000040000fa
:04027c002e0600004a
:020000040000fa
:040280002e06000046
:020000040000fa
:040284002e06000042
:020000040000fa
:040288002e0600003e
:020000040000fa
:04028c00f005000079
:020000040000fa
:04029000260600003e
:020000040000fa
:040294001805000049
:020000040000fa
:040298002e0600002e
:020000040000fa
:04029c002e0600002a
:020000040000fa
:0402a0002e06000026
:020000040000fa
:0402a4002e06000022
:020000040000fa
:0402a8002e0600001e
:020000040000fa
:0402ac002e0600001a
:020000040000fa
:0402b0002e06000016
:020000040000fa
:0402b4002e06000012
:020000040000fa
:0402b8002e0600000e
:020000040000fa
:0402bc002e0600000a
:020000040000fa
:0402c0002e06000006
:020000040000fa
:0402c4002e06000002
:020000040000fa
:0402c8002e060000fe
:020000040000fa
:0402cc002e060000fa
:020000040000fa
:0402d0002e060000f6
:020000040000fa
:0402d4002e060000f2
:020000040000fa
:0402d8002e060000ee
:020000040000fa
:0402dc002e060000ea
:020000040000fa
:0402e0002e060000e6
:020000040000fa
:0402e4002e060000e2
:020000040000fa
:0402e8002e060000de
:020000040000fa
:0402ec002e060000da
:020000040000fa
:0402f0002e060000d6
:020000040000fa
:0402f4002e060000d2
:020000040000fa
:0402f8002e060000ce
:020000040000fa
:0402fc002e060000ca
:020000040000fa
:040300002e060000c5
:020000040000fa
:040304002e060000c1
:020000040000fa
:040308002e060000bd
:020000040000fa
:04030c002e060000b9
:020000040000fa
:040310002e060000b5
:020000040000fa
:040314002e060000b1
:020000040000fa
:040318002e060000ad
:020000040000fa
:04031c002e060000a9
:020000040000fa
:040320002e060000a5
:020000040000fa
:040324002e060000a1
:020000040000fa
:040328002e0600009d
:020000040000fa
:04032c002e06000099
:020000040000fa
:040330002e06000095
:020000040000fa
:040334002e06000091
:020000040000fa
:040338002e0600008d
:020000040000fa
:04033c002e06000089
:020000040000fa
:040340002e06000085
:020000040000fa
:100400000f9321000e7f24000e01880000000000e1
:10041000000020000000e000020032000001200087
:100420002002880014000700030407000000e00019
:1004300003003a0080b024000100200002003700d1
:100440000000200001002000810f70000100320038
:1004500014000700000020000000e000020032004d
:1004600000000200000000001a2902000000000045
:100470000040da000000fe004440a900e0752000c2
:100480000000e0000300320000002000a00188000e
:100490004440a800000006008a1f78008b1f7800e7
:1004a0000000060091018800800478000000eb0045
:1004b0001a003700e284440032a0b4009905ba0063
:1004c000e284440032a0b4009906ba00e2844400f9
:1004d00032a0b4000006eb00476fde00fd07b2005b
:1004e000636ce10003003a00ebff07000000eb0043
:1004f0000a003700606ce10004003a00005deb0088
:100500008b05e900fdff3e00040037006168e10053
:10051000010032000086eb000b00070019c7ba008b
:100520001905ba000e04e00003003a000a00e000da
:10053000e0ff3a0000000600fe07b2009e018800be
:100540008a047800f5ff3700395dba008b05e900b1
:100550000c003200295dba008b05e900080032006a
:100560000c00e00003003a00e284440032a0b40032
:10057000f5ff370019ddba008b05e900faff3a00f4
:100580008904e800e184440032a0b40000000600c1
:10059000a21004000000000040120400000000004f
:1005a0005a1204000000000088120400000000003d
:1005b000c01d040000000000000004000000000056
:1005c0000000fa008580a9000080fa0000400600c3
:1005d0003600f800809fbe00829fbe00849fbe0050
:1005e000869fbe000200fa008560a9000040eb0073
:1005f000004f78001100370086030700004f780095
:10060000000000001e407800ed4f50000f00320047
:100610001e4078000004e00008003200c041800065
:100620009e407800014878000000e800c041880042
:10063000b04180000000e800b0418800720307006c
:100640000004e000ecff3a00010037000000000069
:100650001e407800ed4f500010003a0000000000ee
:1006600001c8bf000004e000fdff3a0010c0b30065
:1006700001e8b700818a200080ca200047050700f2
:10068000808a2000c0418800024020008000eb00ea
:10069000808a2000190507003628ef000080fa0044
:1006a0004f03be004f02be004f01be004f00be0010
:1006b0003600f9000040060000a0fe003600f800f9
:1006c000849fbe00869fbe003400f8000400200016
:1006d000a40188000200fa000040eb00004f7800ff
:1006e0004110800000042000008060000000e00055
:1006f0000300320000108000004f780008c2a900fb
:1007000040108000620060000000e0004c003200f9
:100710004110800000022000008060000000e00026
:100720001d003a0000108000004f780010c0b30098
:1007300033e8b70040108000640060000000e00073
:100740003f00320026c8bf000004e0000a0032006b
:1007500034c8bf000080fb0081df200061407800ca
:100760000080fb001010880034c8bf000040e80083
:1007700034e8b7000300370004c8bf000080fb0066
:100780001010880000c42900010020007e2407000a
:100790000782a8002a0037002668ef003468ef00bf
:1007a00000108000004f780033c8bf00e14f5000b8
:1007b00006003a001e4178005183200082487800ec
:1007c0000668ef003368ef001d00370061802000ed
:1007d0009140780035c8bf0080cf50001400310030
:1007e00006c8bf000080fb001e417800c1d0200079
:1007f0008270780006c8bf000040e80006e8b70035
:10080000618020009140780035c8bf0080cf500043
:100810000b003a003568ef0010c0b30003e8b700e2
:1008200006c8bf0002e8b7000668ef000400370002
:1008300006c8bf00e54f5000010036000668ef0013
:1008400040108000640060000000e00019003200e9
:100850004110800000002800008060000000e000df
:1008600014003a0026c8bf000004e0000a0032006d
:1008700034c8bf000080fb0081df200061407800a9
:100880000080fb001010880034c8bf000040e80062
:1008900034e8b7000300370005c8bf000080fb0044
:1008a0001010880000c42900010020003624070031
:1008b0000782a800418320009140780070ccb300eb
:1008c00080cf5000020036003468ef002668ef0049
:1008d000401080008600a9000080fa003400f90072
:1008e0004f03be004f02be003600f9000080fe003c
:1008f00000400600809fbe000000fa0030c8bf0024
:100900000040e80030e8b700018320009140780003
:1009100030c6b30080cf50000f00360031c8bf0092
:100920000040e80031e8b70031c8bf00e44f500094
:100930000800360032c8bf000040e80032e8b700c7
:1009400032c8bf00e14f5000010036003268ef00ae
:100950003168ef003068ef008460a9000080fa0081
:100960004f00be0000400600809fbe000000fa005d
:10097000b01680004900de006140600000c0ea005f
:10098000614060000080fb00610060004900dd0004
:10099000b11680000190a10001007000b01688001f
:1009a00027c8bf000004e0000b0032005016800092
:1009b000004078006140600000c0ea0061406000d3
:1009c0000080fb0061006000511680000100a10062
:1009d000010070005016880084e0a9000080fa0031
:1009e0004f00be0000400600809fbe000000fa00dd
:1009f000b01680004800de006140600000c0ea00e0
:100a0000614060000080fb00610060004800dd0084
:100a1000b11680000180a10001007000b0168800ae
:100a20008500a9000080fa004f00be0000400600cb
:100a30003600f800809fbe00829fbe00849fbe00eb
:100a4000869fbe00881f78000000fa0024c8bf00ff
:100a50000004e0001d0032002023a8000000000078
:100a6000000107000004e000fdff3a0025c8bf00b8
:100a70000004a2000004e00014003200784180006d
:100a80000040eb00190107008000780008014400d5
:100a900000d3200000004100010878007041800070
:100aa0000000e8007041880071418000300620009d
:100ab000808f5000050036009760a90010c0b30079
:100ac00025e8b7002e28ef002868ef008760a9000e
:100ad0000080fa004f0478004f03be004f02be00b2
:100ae0004f01be004f00be003600f9000040060076
:100af0003600f800809fbe00829fbe00849fbe002b
:100b0000869fbe000000fa00ca22a800ca42a800c0
:100b1000ca02a80003010700070107000b01070034
:100b20000f010700a5010700a801070072012000be
:100b300041822a0040842000e9030700408420000d
:100b4000a12007008400a9000080fa004f03be0026
:100b50004f02be004f01be004f00be003600f9003c
:100b6000004006003600f800809fbe00829fbe0055
:100b7000849fbe00869fbe000000fa006041800096
:100b80000000e800604188006141800090408000e2
:100b9000808f5000060039000c68ef00e600070067
:100ba00094c0a900df0007009440a9002c28ef00a2
:100bb0008440a9000080fa004f03be004f02be002f
:100bc0004f01be004f00be003600f9000040060095
:100bd0000000fa0084c0a9000080fa00004006006e
:100be0003600f800809fbe00829fbe00849fbe003a
:100bf000869fbe000000fa00504180000000e8001f
:100c00005041880051418000a0408000808f5000fa
:100c1000060039000c68ef00d10007009740a900da
:100c2000ca0007009720a9002a28ef008720a90002
:100c30000080fa004f03be004f02be004f01be000d
:100c40004f00be003600f900004006000000fa0028
:100c50008740a9000080fa00004006000040da004a
:100c60000000fe00000178001001e20002003500e3
:100c70001061a80011e1a800300880004108800040
:100c80000200e000010032000089be000000060002
:100c90000a00fa0011002000b1bf9f00c0bf9f00f2
:100ca0006a8057006b0c07004fb897000080fa006d
:100cb000000006000a00fa00e20f500034003e0077
:100cc00060898000e10f500003003200e20f500005
:100cd00011003a000c003700032220000300e0005e
:100ce00001003a000040da002002e2000200350074
:100cf0002822ef0021e2a8002342ab000d003a00b9
:100d00002342a8000b003700032320000300e0006b
:100d100001003a000040da003002e2000200350033
:100d20003822ef0031e2a8003342ab0001003a0064
:100d30003342a800820178000b0037003102fb002b
:100d4000e10f500004003a002322ab00feff3a00fe
:100d500024118800030037003322ab00feff3a0065
:100d6000a41188008301e9000300e000f3ff3a00ca
:100d7000e10f500003003a002302ab00feff3200f7
:100d80000b0037003302ab00feff320008003700d3
:100d900033002000b3bf9f00c0bf9f00d1bf9f00a2
:100da000e2bf9f006a8057002c0c07006fb99700c4
:100db000020078000080fa00000006000a00fa0035
:100dc00051002000b1bf9f00c0bf9f006a80570044
:100dd000240c07005fb897000080fa0000000600ae
:100de000889fbe0080047800708980000000e000c9
:100df00004003a000e0007000084eb000000e00051
:100e000008003500788980000900e0000500320004
:100e100009004400060007000000e00001003d005a
:100e20000084eb00080078004f04be0000000600bc
:100e3000800078000100e00003003a000013210068
:100e400070898800000005000080eb0002932100fb
:100e5000828f500002003e00718988000000eb0084
:100e60000000060000198000610060000000a20080
:100e70000000060085a0a900e7006000f2f82f003e
:100e8000c408dd00530580000301610068006000b4
:100e9000028170004300de0052058800610060009e
:100ea000f1ff2d004d00dd00a20480008280600073
:100eb00081007000a1048800000006006419880009
:100ec000871988006202600093198800221988003f
:100ed0001119880000198800d0ff2f002003b600e8
:100ee0000000720000198800000006000130200098
:100ef0000080fb0000004000610078000000060058
:100f000007e2a9009600a9009620a9008600a90082
:100f10008620a900000006002110880030108800fb
:100f2000000006009440a90080ff2f008421b60035
:100f30008440a9000000060094c0a90080ff2f0093
:100f40008a21b60084c0a900000006009720a900ed
:100f500080ff2f009021b6008720a9000000060026
:100f60009740a90080ff2f009621b6008740a90076
:100f7000000006008440a900e7006000f28f2f0007
:100f8000c808dd00230580000301610068006000df
:100f9000028170004300de002205880061006000cd
:100fa000b1ff2f004200dd00a204800082806000bb
:100fb00081007000a10488000000060084c0a90020
:100fc000e7006000f28f2f00c808dd0033058000c5
:100fd0000301610068006000028170004300de00d0
:100fe0003205880061006000f1fb2f004600dd0043
:100ff000a20480008280600081007000a10488004b
:10100000000006008720a900e7006000f2f82f002a
:10101000c408dd00830580000301610068006000f2
:10102000028170004300de008205880061006000dc
:10103000f1df2f004900dd00b204800082806000f3
:1010400081007000b1048800000006008740a900fc
:10105000e7006000f28f2f00c808dd0083058000e4
:101060000301610068006000028170004300de003f
:101070008205880061006000f1bf2f004a00dd009a
:10108000b20480008280600081007000b10488009a
:101090000000060083ff2f0044182000148a61001e
:1010a000010c8800120c8800200c8800000006004b
:1010b00083ff2f00a4182000148a6100310c8800df
:1010c000420c8800500c88000000060083ff2f00af
:1010d00004192000148a6100610c8800720c8800d9
:1010e000800c88000000060083ff2f006419200098
:1010f000148a6100910c8800a20c8800b00c880052
:10110000000006009820a90061e2a9008820a9003b
:10111000000006008820a900e7006000f2f82f0018
:10112000c408dd00a30580000301610068006000c1
:10113000028170004300de00a205880061006000ab
:10114000d1ff2f0000004000c204800082806000b8
:1011500081007000c10488000000060010138800a0
:101160002113880002138800000006000080eb00b5
:101170006002ab000700320060c2a9006342ab000e
:10118000020032004013800000000600401380007f
:10119000f00fb200000006006342ab0001003a000d
:1011a000f00fb20040138800000006009460a90010
:1011b00005e1a9008460a9000000060094e0a900f0
:1011c00011e1a90084e0a900000006009500a90033
:1011d00013e1a9008500a900000006009760a9009e
:1011e0001fe1a9008760a900000006008460a90033
:1011f000e7006000f2ff2800cc08dd002305800036
:1012000003016100680060000281700071ff2f001f
:1012100022058800a20480008280600081007000a6
:10122000a10488000000060084e0a900e700600037
:10123000f2ff2800cc08dd003305800003016100c7
:1012400068006000028170004300de003205880003
:1012500061006000f1f72f004700dd00a20480006c
:101260008280600081007000a104880000000600f8
:101270008500a900e700600082ff2f006800600081
:1012800043058000030161004300de00028170001d
:1012900061006000420588004800dd00f1ef2f008a
:1012a000a20480008280600081007000a104880098
:1012b000000006008760a900e7006000f2ff280038
:1012c000cc08dd0083058000030161006800600038
:1012d000028170004300de0082058800610060002a
:1012e000f17f2f004b00dd00b2048000828060009f
:1012f00081007000b1048800000006000021ef00aa
:101300001108880020088800000006000621ef0070
:1013100061088800800888001061a90000000600ac
:101320000a21ef007108880090088800000006007c
:101330001421ef00d1088800f00888001e61a90080
:101340000000060000088800000006003008880041
:10135000000006005008880000000600a008880071
:1013600000000600001020002202b6000000e90084
:101370004f00de00000006008560a900e700600065
:101380008580a900cc08dd0000017800f3ff28006b
:101390000207b20044058000848161004411de0030
:1013a00083817000e800600043058800c308de0008
:1013b00083ff2f00e180600054058000848161007c
:1013c000cb08dd00830171000008b20053058800de
:1013d000f27f2f004700de00a304800003016100bc
:1013e00061006000028170004c00dd00a2048800f2
:1013f000f1ff2e00a4048000848060008100700052
:10140000a104880000000600101180006140600007
:10141000000006000011800066006000e60f50002a
:1014200002003a00301180000000060030118000f8
:10143000f00fb200000006000000050003f0a2005b
:10144000889fbe008a9fbe008c1f7800090107009c
:10145000100133006450e1004f0032006420e100cd
:101460005200320003826c0007003b000905d000e7
:101470000306d000820f54000c065d000200390004
:101480000200320089017800030678008582550049
:1014900004003d000003fd008103fd008502ea0019
:1014a0008b854200840f720002003b006000100038
:1014b000e08018006011b8000005eb007a28e10018
:1014c0000a00390006007800c75ddd00f707b200aa
:1014d000878075002d003700828171000a01780035
:1014e000610560008180d1000080d3008502e900a1
:1014f000f9ff3b00060440008784480002003b00df
:1015000060041400e0841c000988a3000700320076
:101510008a81710082817100610164008904d100b7
:101520000884d3008b05e800170037000978a30072
:1015300013003a000b00e000130034008b05e900b3
:101540000804440089844c000a4474000978a3000c
:101550000d003a000b00e000070034008b05e900a5
:101560000804440089844c0001003a000b0020006c
:101570000978a300f7ff32000001eb0002003700fa
:10158000828171000a0178007f0007000cf0a7003b
:1015900001f0a000c80037006420e10002003a001a
:1015a000838f6c00c80033000801be000200be003b
:1015b000c1003700889fbe008a9fbe008c1f780044
:1015c000ac000700b300330003866c006450e100f8
:1015d0002e0032006420e100330032006150e1004f
:1015e0002f0032006120e100310032008585550076
:1015f000eb07b000090020000804200005003700b8
:101600000804440089844c000a00310006034300aa
:1016100087834b000001530081815b00f8ff33009a
:101620000203be000800a0000804440089844c00a6
:10163000f6ff3900c639dd00830173000100320076
:10164000130020008904d1000884d3000998a30066
:10165000050032000800a7000300a0008904d100a3
:101660000884d3008b05e8008904d1000884d300e6
:101670000001eb000281d2004300070001f0a1004d
:101680000cf0a70001f0a0008b0037006420e100ff
:101690008d0032000801be000200be00f7ff3700d7
:1016a0006120e100880032006000b800f3ff3700dd
:1016b0000000200001f82700f0ff3700839f68003a
:1016c0000100e00002003d0060001000e080180012
:1016d0000300e00002003d0060011100e0811900fc
:1016e000b00007004f00e00002003b006000100067
:1016f000e0801800000006000001be00480007005e
:101700000470a70003f0a1006509b10016003200c3
:101710000d0035006828e10006003500f0ff2f00bd
:10172000f1ff27000300e00013003b000100280048
:101730000000050000004000818048008502e900ab
:10174000fcff3a0008003700f88f420002003c001e
:101750008000eb00000005008100d1000080d30074
:101760008502e800fcff3a000300e00002003b00b5
:1017700060001000e0801800000006004f89de00c5
:1017800082017800970037008100200061805500b9
:101790000b003d000b00200061fe2f000100e10066
:1017a0001d00340082817100610164008904d10050
:1017b0000884d3000000e800faff3a00710020001e
:1017c0006100640003007000020060000900320044
:1017d00061044400e0844c000988a5000500320043
:1017e0008b05e8006808e10002003a008904d10096
:1017f0000884d300f20f20000258e10005003d00ec
:10180000c75ddd00f907b200898075000800780027
:10181000000006000bf827008b0078000000050090
:10182000c70ade00f107b200f50fb200080032006f
:10183000e1cf4200020032000170a0002400050048
:10184000810f70000100320004080500440005000b
:10185000810f700002003a00140005008502e900c3
:101860000000400081c04800fcff3b000170a00068
:10187000240005000004be00e9ff07000003be00cd
:101880000405be000200be00e5ff0700844f75009e
:10189000000006000200be006450e10005003600b2
:1018a0006420e100020036000968a30001003a004c
:1018b0000800be000160a0004f0678004f05be0082
:1018c0004f04be0000000600f0ff2f00f1ff2700cc
:1018d000f9ff3700889fbe008a9fbe008c1f7800ea
:1018e000e4ff0700ebff330003866c006450e10067
:1018f000240032006420e100270032006150e10042
:10190000220032006120e100210032008b8542007c
:10191000eb07b1000134b800003ab80008044200f7
:1019200089844a00013ab8000030b800888040003d
:1019300009014a0004003300000040008180480093
:10194000020149008b05e900c909dd00830170002f
:101950000100320013002000c814de004814dd002e
:101960004709de001200b200c808de0008847000db
:1019700085ff070001f0a1000cf0a70001f0a00016
:10198000cdff37006120e100cfff32000801be002b
:101990000200be00f7ff37006150e100fcff3a0093
:1019a000c9ff37006022b800060220000000d00006
:1019b0008180d2000482d2008582d2000000a00083
:1019c0000202520083825a000300310002024200e8
:1019d00083824a000000a1000603e900f3ff3a00f9
:1019e00000000600881f7800030478000300e00070
:1019f00007003d0060001000e08018006001190041
:101a0000e081190002003b0001f02d0003003700c7
:101a10000400070008f0a70001f0a0004f047800c0
:101a200000000600889fbe008a9fbe0000827000f2
:101a30000402710004827100260032000004be001e
:101a40000200be006011b8006b0920009502200062
:101a50000182cf000a0039000541b1000082cf00a9
:101a6000070039000541b1000982cf0004003900a8
:101a70000541b1000882cf00010039000541b100e5
:101a800005425200120032000a003b0082817100c0
:101a9000610164008100d1000080d3008984d300fb
:101aa0000884d3008b05e8000442e800f7ff3a0001
:101ab000070037000804440089844c0000004800f7
:101ac000818048008b05e9000442e900f9ff3a00f3
:101ad0002dff07004f05be004f04be0000000600aa
:101ae0008001780002003700b15978000201e90056
:101af0000200e000fcff3a000000060080017800d0
:101b000002003700815978000201e9000200e0007c
:101b1000fcff3a0000000600889fbe000004780029
:101b2000407b80000000e000010032000000010066
:101b300060f620000048eb00507b80000000e000d1
:101b400001003200000001008004eb0008898800d9
:101b5000198988004f04be0000000600020037000b
:101b60000204e0000b0032008101780000027800de
:101b700030417800b14f5100f9ff320010002000d1
:101b800014427800934f5200030031000080eb00b4
:101b9000000006000000eb000000060000017800d5
:101ba000b1417800035978000304e000fcff3a00db
:101bb0000000060080007800010178003104e00098
:101bc000fdff3a000000510000000600889fbe00a3
:101bd000810478000000e00002003a00d88880000c
:101be00001003700000478000800be0088040700e8
:101bf000000444001804e00004003a0080112100b1
:101c0000d08888000004eb00070037000800be0001
:101c10006e040700000044001004e00001003200e0
:101c20000058eb00d0888800080078004f04be0000
:101c300000000600e4874700889fbe008a9fbe0020
:101c40008c1f78008e1f780000057800010778004f
:101c5000020678000e00e00001003a006e8757008f
:101c60008a0578008b047800890578003b44780069
:101c70000800fb00d50007000000e000f9ff3a0073
:101c8000d0c2b300804f54000300320000c0e9000e
:101c9000804f540002003a008904e8000100370038
:101ca000004478000c0178008e007800090078006c
:101cb0002a0007009e8f540001003a000a0f7800a6
:101cc0009e0f550003003a00e00f5000e08f5800cf
:101cd0000f003a00b2c2b300824f540004003a0031
:101ce000e00f5000e08f580016003d00080037005c
:101cf000d2c2b300824f540012003a00020020000a
:101d000003002800820f5000838f5800080036001f
:101d100020022000e08888006b404000804f540083
:101d200006003a00000020000100280005003700ee
:101d300060001000e080180002003700f0ff2f0064
:101d4000f1ff27004f0778004f0678004f05be00cf
:101d50004f04be004f00b10000000600ee874700b0
:101d6000889fbe008a9fbe008c9fbe008e1f780099
:101d7000f0b79f0001067800820578000004780023
:101d8000080578000a047800b84678000d00fb00ca
:101d90008e0007000000e000f9ff3a00d0c2b30057
:101da00080cf56000300320000c0e90080cf56000b
:101db00002003a000a05e80001003700804678007a
:101dc0000b00e00005003500e18f550003003200f4
:101dd00040022000808f5500060034006044b800a7
:101de0000c00e000720032007fb09700000e780017
:101df000480037000b00e0000e003200f08f550065
:101e00001a003a0000c3b3009a4f100017003a00be
:101e10001a40900081c7b300814f50000300320088
:101e200081c5b300814f500010003a000a85e800d8
:101e30000e003700ab00200000c3b3009a4f100023
:101e40000a003a001a40900081c7b300814f500049
:101e5000040032008b00200081c5b300814f500088
:101e600002003a000a85e8000b0120000a00780011
:101e7000000278000400780001c3b300b0cf100066
:101e8000fbff3200040778006044b800b4b79f003d
:101e90000d0037008107210081405000c1ef9f00f5
:101ea0006159b9000800be002b0807004fea9700ef
:101eb0000401fb00cf91de00c8b79f00d9b79f0097
:101ec00002044000838448008e0278003e00fb003c
:101ed00085bf9f00450007000b0178008000780057
:101ee00080072100a30307008fba97000000e000dd
:101ef000e8ff3a003fb29700850f550007003a000f
:101f00006044b8000c00e00029003200ffb29700e6
:101f1000050e78006044b8002500370004825200a6
:101f2000d009210060c07d000000fb0000025200cb
:101f30001700330011003a004fe997000200fb0040
:101f4000cf80de000000540081805c00800f5400d0
:101f5000818f5c00090039006159b90085bf9f007d
:101f600090fe07008fba97004fb19700dfb197003e
:101f7000820f5000838f580005003200200220009d
:101f8000e08888000084eb008084eb0005003700c7
:101f9000d0c2b30080cf560002003a0060041400a3
:101fa000e0841c000c00e00001003200050e780007
:101fb0000800be004f0778004f06be004f05be0068
:101fc0004f04be00ef00b100000006006900e10010
:101fd000040035006d00e100030034000002b10090
:101fe00001003200000005001000050080007800ac
:101ff0001104b100030035009101b10001003c0063
:102000000050a00000000600f08880000000e00002
:102010000100320000000100c01121000000060094
:10202000881f7800407b80000000e0000100320043
:1020300000000100507b80000000e0000100320041
:102040000000010060f620001004e00024003a00c7
:10205000008980001189800088002000d26026005d
:1020600093012000bc070700f2352f00e3c62300d0
:1020700000004100818049000804e900f7ff3a00b0
:10208000d260260093012000b3070700f2352f002d
:10209000e3c623000000410081804900c241dd0009
:1020a00002f72000028141000089be000804e80018
:1020b00002022000820f5400f1ff3a0000898800dc
:1020c00011898800607f8000717f8000607b8800bc
:1020d000717b880011c0b30060f6200001487800d1
:1020e000d2602600930120000089800011898000c1
:1020f00099070700f2352f00e3c6230000024100d4
:10210000818249000489880015898800c0f6200072
:10211000100078007f0160004211dd0000f7200010
:10212000000141001200be00607b8800717b8800c6
:102130000489be000100780000f0a1004f0478007f
:1021400000000600889fbe00000478000203be0065
:1021500081047800080278008901780012002000cc
:102160000600be0045050700890f5000010032003f
:102170000004eb00080078004f04be0000000600d9
:102180006800fa00889fbe008a9fbe008004780025
:102190000104780082057800030578008400780047
:1021a00000f92f000f00400032050700d98f9f0073
:1021b000fb8f9f000000eb00a09f9f00e88f9f0017
:1021c0009a84fb000904fb008904ea00cf4cde007e
:1021d00050022000800f54000d003200e18f5400a7
:1021e0000b003a00090178008a0078007f88970088
:1021f000df89970003000100f08f9f000000e000de
:10220000950032002f9897000000e800a09f9f00e3
:102210000905450050022000800f540004003200e0
:102220000800e000e6ff3a002f9897008b00370087
:102230000000eb00809f9f00f0979f00e0979f00b9
:10224000d0979f00c0979f00b0979f00070037006e
:10225000810f21000100500000004000c10e21004c
:1022600061007800cf98970001007000c09f9f0028
:102270000a04780008057800ba4478008900fb0059
:10228000800f2100c50207000000e000f0ff3a00c7
:10229000a1c2b30081cf54000e003a008f8897008e
:1022a0000180e900808f9f0010007800b09f9f00a0
:1022b0000000e00005003d000000ea00b09f9f0024
:1022c0004f9897000020a000c09f9f000804e800de
:1022d00010003700b09f9f00880078000000eb00de
:1022e00005003700f3ff2700830f50000200320083
:1022f0006a02b900040041000104780088007800f7
:102300003101fb000203b100e90f5100f5ff360077
:10231000b09f9f00e0c2b300984f1000020032004f
:102320000080eb0019003700a0c2b300d84f1000a6
:1023300007003a008f8897000180e900808f9f0096
:1023400010007800909f9f000804e80010003700fc
:102350000000eb00909f9f00880078000500370088
:10236000f3ff2700830f5000020032006a02b90019
:102370000400410001047800880078003101fb006e
:102380000203b100e90f5100f5ff3600909f9f0056
:10239000984478008900fb00400e21007f0207006e
:1023a0000000e000020032000804e80001003700ed
:1023b0008044eb00a97f9f0080c6b30080cf54000b
:1023c00006003a0098cf140010003a006640500012
:1023d000a07f9f000804e8000c003700c0c6b300cf
:1023e00080cf540009003a0098cf140007003a004b
:1023f00067404000d84f100002003a006e40500085
:102400000100370010c7b300a07f9f001801fb0038
:10241000c3fb2f008f81410001f92f008f80400006
:1024200020f92f000f004000080107000000e00025
:1024300009003a00c1fb2f008f80400020f92f00d7
:102440000f004000b10307000000e000020035006b
:102450000805e8005aff37000080eb004f05be007a
:102460004f04be000080fa0000000600030278005e
:102470008201780001017800210a210040ff370025
:10248000889fbe00800478000203be00010478002b
:102490006149b800898fd2008381d2000802780098
:1024a0000600be0071060700088044004f04be000d
:1024b00000000600881f78000204780008017800f8
:1024c00087fd0700080040004f0478000000060068
:1024d0000000fa00881f7800000478006a82570024
:1024e000bfb997000801780001242100a025210030
:1024f000160007000000e000020035008040eb00fd
:10250000017478004f0478000080fa000000060093
:10251000889fbe00000478000203be00810478009a
:102520000802780089017800120020000600be0031
:1025300052040700890f5000010032000004eb0034
:10254000080078004f04be00000006006800fa0092
:10255000889fbe008a9fbe00800478000104780036
:1025600082057800030578008400780000f92f00c8
:102570000f0040003f040700d98f9f00fb8f9f0092
:102580000000eb00a09f9f00e88f9f009a84fb0053
:102590000904fb008904ea00cf4cde005002200051
:1025a000800f54000d003200e18f54000b003a0000
:1025b000090178008a0078007f889700df899700fa
:1025c00003000100f08f9f000000e0009500320042
:1025d0002f9897000000e800a09f9f000905450084
:1025e00050022000800f5400040032000800e00078
:1025f000e6ff3a002f9897008b0037000000eb00b1
:10260000809f9f00f0979f00e0979f00d0979f00ca
:10261000c0979f00b0979f0007003700211121004d
:1026200001005000000040006110210061007800ae
:10263000cf98970001007000c09f9f000a047800a7
:1026400008057800ba4478008900fb0020112100b9
:10265000d20107000000e000f0ff3a00a1c2b30081
:1026600081cf54000e003a008f8897000180e90066
:10267000808f9f0010007800b09f9f000000e00056
:1026800005003d000000ea00b09f9f004f989700b2
:102690000020a000c09f9f000804e8001000370041
:1026a000b09f9f00880078000000eb000500370015
:1026b000f3ff2700830f5000020032006a02b900c6
:1026c0000400410001047800880078003101fb001b
:1026d0000203b100e90f5100f5ff3600b09f9f00e3
:1026e000e0c2b300984f1000020032000080eb00ff
:1026f00019003700a0c2b300d84f100007003a00fd
:102700008f8897000180e900808f9f00100078007b
:10271000909f9f000804e800100037000000eb00c5
:10272000909f9f008800780005003700f3ff270086
:10273000830f5000020032006a02b9000400410019
:1027400001047800880078003101fb000203b10029
:10275000e90f5100f5ff3600909f9f0098447800e4
:102760008900fb00e00f21008c0107000000e00061
:10277000020032000804e800010037008044eb004a
:10278000a97f9f0080c6b30080cf540006003a00a6
:1027900098cf140010003a0066405000a07f9f00c0
:1027a0000804e8000c003700c0c6b30080cf540016
:1027b00009003a0098cf140007003a006740400033
:1027c000d84f100002003a006e4050000100370060
:1027d00010c7b300a07f9f001801fb00c3fb2f00b0
:1027e0008f81410001f92f008f80400020f92f00d8
:1027f0000f004000150007000000e00009003a004b
:10280000c1fb2f008f80400020f92f000f004000f7
:10281000be0207000000e000020035000805e800e5
:102820005aff37000080eb004f05be004f04be008a
:102830000080fa00000006000302780082017800a0
:10284000010178008128210040ff3700889fbe00e9
:102850008a1f780000047800010078008240780028
:10286000e2c6b30082cf5000c000320015003c0029
:102870006b41510082cf5000240032000a003c001e
:102880007041510082cf5000f90032006541410093
:1028900082cf50006800320050c2b30080cf500099
:1028a00028013a002401370042c6b30082cf50000d
:1028b0001b0032006541410082cf500021013a00e7
:1028c0001700370032c7b30082cf5000e800320053
:1028d00007003c006441510082cf50005600320096
:1028e0000241e80082cf500016013a00d2003700c2
:1028f00052c7b30082cf50004f0032006341410005
:1029000082cf50000f013a004b0037009080e90061
:1029100001087800280890009140780007013700ee
:1029200008699000c4c6b300844f510007003a0004
:102930001002780064015200020878001202be0002
:102940004fabde00860378001100370014c7b300d8
:10295000844f510003003200a4c6b300844f5100dd
:1029600006003a0010027800680152000208780060
:102970003202be002203be00050037001081e900cc
:102980000208780012027800cfa2de00612bb900a5
:10299000049cbe000694be000868900082c6b30086
:1029a000824f50000d00320022c6b300824f50000b
:1029b00004003a000402fb00cfa2de00612bb90044
:1029c0000800370042c7b300824f500003003200b6
:1029d00066414100824f500004003a00cfa2de0061
:1029e000612bb900049cbe000694be003802be00f4
:1029f0002803be0028089000d2c2b300e00f5200a6
:102a0000e08f5a00e00f5b00e08f5b0008003500ac
:102a1000381190000218a30002003200b2c2b300c5
:102a2000030037000208a3004c00320002c2b300ca
:102a3000827178004700370008699000c4c6b3006f
:102a4000844f510006003a001002780064015200e1
:102a5000020878001202be006033b800110037008f
:102a600014c7b300844f510003003200a4c6b30062
:102a7000844f510006003a001002780068015200ad
:102a8000020878003202be002203be0005003700b3
:102a90001081e90002087800120278008002eb0041
:102aa0006033b800049cbe000694be000868900025
:102ab00082c6b300824f50000d00320022c6b30020
:102ac000824f500004003a000482fb008002eb00b9
:102ad0006033b8000800370042c7b300824f50008f
:102ae0000300320066414100824f500004003a006a
:102af0008002eb006033b800049cbe000694be0068
:102b0000381090000038a300140032003802be00d4
:102b10002803be00e00f5200e08f5a00e00f5b0078
:102b2000e08f5b000d00320080c7b30080cf500003
:102b30000300320080c5b30080cf500007003a0088
:102b40002808900002c3b300827178000000e800fa
:102b5000817178000000e800200c9800280890009f
:102b600080814100730498003e003700086990009e
:102b7000c3c6b3009080e900834f510022003200a9
:102b80000a003c00e4c15100834f5100250032008f
:102b900083c1e800834f510013003200e8c15100a7
:102ba000834f51001e003a000a00370043c7b300ac
:102bb000834f51001b003200e6c14100834f51009a
:102bc00018003200e9c15100834f510014003a004f
:102bd0000500370001087800110078002864900093
:102be000084878005f00370001087800110078007d
:102bf00018129000cfa2de00612bb9000498be002d
:102c00000690be00570037000108780011007800d8
:102c100018119000cf91de000288be0051003700ed
:102c20009080e900010878001100780018149000e5
:102c3000080878004b0037009080e9000108780010
:102c400011027800cfa2de00612bb900049cbe0007
:102c50000694be002808900080814100730498000b
:102c600081c7b30008007800790007003d003700f5
:102c70000869900051c6b300814f51001a003a0014
:102c800010017800e4005100010878001100be0036
:102c9000000c9800110c9800881190000300e000cf
:102ca00007003d008081eb000001eb008c04070071
:102cb0000001be0088089000810051000800370024
:102cc0000001eb0086040700008170000300320061
:102cd0000809900082005000010037008810900021
:102ce000410c98001f0037009080e900010878002f
:102cf000110578007a049800881490000900e0001b
:102d000004003d000a007800aafb07008004780058
:102d100007003700090178008000eb000a00780006
:102d2000140007000000e000010032008a04500097
:102d3000490c98000b00370028089000817178003a
:102d40000600370028089000808141000104e0005f
:102d500001003a0051c2b300814978000000e80048
:102d6000200c98000000eb004f0578004f04be00d7
:102d70000000060003003700b0cf1000050032004d
:102d80000201e900800178000200e000faff3a0049
:102d90000000050003007800000006000200370074
:102da0000304e00006003200000178000200780011
:102db000b041780081cf5100f9ff3a00010037009f
:102dc0000001eb000200780000000600000178001e
:102dd0000700370086cf520002003a000080510001
:102de00000000600344378000604e000f9ff3a00d2
:102df00082017800b24278000504e000020032004f
:102e000001027800f7ff3700008051000000060043
:102e1000000178000800370081027800354378000f
:102e20000604e00002003a000080510000000600a5
:102e3000864f5200f9ff3a00820178003242780052
:102e40000404e000f4ff3a00008051000000060096
:102e5000fc874700889fbe008a9fbe008c9fbe00f3
:102e60008e1f78000006780080c5b30080cf500028
:102e70000a0032007740400080cf50000a00320044
:102e80006940400080cf50000b003200300d21001f
:102e900080bf9f00ae0020000a003700220c2100f6
:102ea00082bf9f0006003700330d210083bf9f00c3
:102eb0008e00200003003700340d210084bf9f00e6
:102ec0000e0120003c02be002c03be000605be0021
:102ed0000404be0040c6b30080cf5000030032009f
:102ee0006540400080cf50000b003a00e00f5200d8
:102ef000e08f5a00e00f5b00e08f5b0006003d00b2
:102f00006000b8006011b8000404500085845800c7
:102f10000605590087855900e80f57000400320064
:102f200040002000f00f570038003a000100370041
:102f300030002000e00f5400e08f5c00e00f5d00e7
:102f4000e08f5d0004003a008c1090008d0120009d
:102f50000100e000060032008e00e9008880600079
:102f60008fba9700e5c07800f1ef9f007d01200047
:102f7000800078008100e900050033008b05d10056
:102f80000a85d3008984d3000884d300f9ff370071
:102f9000089ebe000a96be00120037008d06e900aa
:102fa0008e00e900848060000fb99700e2c17800cc
:102fb00082fd2f000f01410003f17e0080007800a8
:102fc0008100e900050033008783d1000683d30028
:102fd0008582d3000482d300f9ff3700049ebe002f
:102fe0000696be003c02be002c03be00e00f52005d
:102ff000e08f5a00e00f5b00e08f5b008b00340035
:103000000d00e000e5ff3c00880037000c689000f0
:1030100081c6b300814f50000b00320006003c0017
:103020000004e00008003200e6c05000814f50006c
:103030004e003a0004003700c1c6b300814f500073
:103040004a003a00210037000800e00004003a007e
:103050000c1090008d0120000000e00006003200fe
:10306000110009000e84d8000fb99700e2c0780063
:10307000f1ef9f007d012000110009000e84d800af
:103080000a003700110009000e04d8008d06e9007f
:103090000e81b900020454008fb8970061417c0092
:1030a00081fd2f008f80400082f07e0000047800b8
:1030b0000800e000020032000d00e000f1ff3c00db
:1030c000cfc4de00614db90025003700e00f540089
:1030d000e08f5c0004003a000c1090008d0120008d
:1030e0000000e000070032006171b9000800be0076
:1030f000960307008fb99700e3417800f3ef9f0034
:103100007d0120006171b9000800be0025fa0700aa
:103110000b0037006171b9000800be0067f90700b5
:103120008d06e90000f1b900020454000fba9700bf
:10313000e4427c0084fd2f000f02420005f27e0075
:103140000004be00e00f5000e08f58000200320083
:103150000d00e000efff3c004fcdde008a05780057
:10316000089ebe000a96be0030003700e00f5400f3
:10317000e08f5c00e00f5d00e08f5d0004003a002e
:103180000c1090008d0120000000e00009003200ca
:103190006172b900612bb9000800be000a01be00cf
:1031a000130407000fba970064427800f4ef9f0001
:1031b0007d0120006172b900612bb9000800be00da
:1031c0000a01be00030407000d0037006172b90058
:1031d000612bb9000800be000a01be000804070008
:1031e0008d06e90000f2b900040454008fba97007c
:1031f00065427c0085fd2f008f82420084f27e00b4
:10320000009ebe000296be003c04be002c05be001f
:10321000e00f5400e08f5c00e00f5d00e08f5d0088
:10322000020034000d00e000e8ff3c00e80f57000a
:1032300010003a003c1090000038a3000d0032004e
:10324000f78f560006003e0085fd2f008f8242005a
:10325000e5c07e0000c3b30080cf500005003200ff
:103260008d06e90002c3b30081fd2f008f8040006e
:1032700082f07e0078811600420e98007c0090005b
:1032800083fd2f008f8141008d80410014fa0700db
:103290004c0890008c109000810f500006003d00fb
:1032a00000805000300e98003c1090000040a100bb
:1032b000301698000f0037000100e0000d003d00bf
:1032c000bc109000f4806000f08f500009003a00bc
:1032d0002c119000ac089000810051003c09900036
:1032e00082805000008050004240a900010034005c
:1032f000300e98004f0778004f06be004f05be0005
:103300004f04be00cf01b100000006000400fa0027
:10331000889fbe008a9fbe008c1f78000004780042
:1033200001067800a81490002808900080845400ba
:10333000380890008084540048089000808454002d
:1033400058089000808454006808900080845400dd
:1033500078089000808454000002220090bf9f00f3
:1033600000032300a0bf9f00381090000028a30096
:1033700015003a000900e000130034000905780048
:103380008a057800e20f5500010036002b0020006e
:10339000c80190000b017800ee8057006800900093
:1033a00003000100600498000000e000aa00320061
:1033b000181090000b004000101498000b055500e9
:1033c0004240a900eeff3c00280990000200e00006
:1033d0000c003400c80190008c0078006800900058
:1033e00003000100600498008080eb000000e00012
:1033f0009a00320098109000280890000080400049
:1034000010149800380d90000a00e00011003400fc
:103410008a057800e20f5500010036002b002000dd
:10342000c80190000b017800ec8057006800900004
:1034300003000100600498000000e00086003200f4
:10344000181090000b004000101498000b05550058
:10345000edff370008699000c808900050c6b3001f
:10346000804f510008003a000100e00015003400d0
:103470005802900008099000980990006800900098
:1034800004000100070037000100e0000d003400d7
:10349000c801900001017800f800900068009000d9
:1034a00003000100600498008080eb000000e00051
:1034b0006a00320098109000480890000080400098
:1034c00010149800580d90000a00e000110034001c
:1034d0008a057800e20f5500010036002b0020001d
:1034e000c80190000b017800ec8057006800900044
:1034f00003000100600498000000e0005600320064
:10350000181090000b004000101498000b05550097
:10351000edff3700086990006808900051c6b300bd
:10352000814f51000d003a000000e0001c00340003
:1035300078019000c8089000010141006111b800b5
:10354000828fd2008381d2005802900080007800e0
:103550006800900004000100090037000000e0004e
:103560000f00340078019000c808900081004100ed
:10357000c80190000001780068009000030001007d
:10358000600498008080eb000000e000330032000f
:103590009810900068089000008040001014980077
:1035a000780d90000a00e000110034008a057800d0
:1035b000e20f5500010036002b002000c8019000ea
:1035c0000b017800ec8057006800900003000100b8
:1035d000600498000000e0001f0032001810900006
:1035e0000b004000101498000b055500edff37004c
:1035f000381090008000eb000028a3001700320074
:103600000900e0001500340009057800e28f54003d
:10361000010036002a002000c80190000a0178004d
:10362000ee805700680090000300010060049800dd
:103630000000e00008003200181090000a0040006e
:10364000101498008a8454004240a900eeff3c0008
:103650008000eb00010037008080eb000100780063
:103660004f0678004f05be004f04be000080fa00f0
:10367000000006000108780000000600e687470009
:10368000889fbe008a9fbe008c9fbe008e1f780060
:1036900082bf9f0004047800029ab900f4b79f002b
:1036a0000400e000590032000fb997000200e0006a
:1036b000570032000006be0004077800c8009000e2
:1036c00068009000808f50000400390008007800e6
:1036d000910007000000e0003b00350000402000a2
:1036e000180060000a0032008e017800a20020005d
:1036f0000c00be00fa0107000005be000080750046
:10370000070032008c0455008904e80005003700ea
:103710008e0478000a0020000b0020000100370012
:103720008e0478004801900068009000020050006c
:10373000890f500003003100800478000a00200047
:103740000b0020006111b800828fd2008381d2006b
:10375000090278000c00be00c401070009075700e9
:103760004800900009004000400498000a85750058
:1037700004003200080078002c0007000000e00080
:1037800011003a000e00e0000f0032006148b8005e
:10379000808fd2008180d2000000780000f0a1006c
:1037a0008c01d0000001d000028641004220a80018
:1037b00081864e004200a9004220ae004200a800cf
:1037c0000c86d300bdff3700008020001800600089
:1037d00002003200080078001400070000c020003a
:1037e0001800600002003200c801900063049800d5
:1037f0007fb097000e0750000fb997001100090025
:103800000287d80080017800010037008001eb00ba
:10381000030078004f0778004f06be004f05be003a
:103820004f04be006f00b10000000600889fbe007c
:10383000000478000800e0000f003a008004eb006c
:10384000090478008800d00080062100610078001b
:103850000000e00004003200f4ff07000000e00078
:1038600001003d008084eb000804e800e80f5400ec
:10387000f4ff3a0025003700000022001800600025
:103880008004eb0021003200a80490000f003700f4
:1038900009015100384090000000fb0089007800c9
:1038a00004f507000000e00007003c00280090003d
:1038b0004004980060049800500c98001890a000f4
:1038c0008084eb00110037008084440048019000a0
:1038d000828f5400eeff39002800900040049800c9
:1038e0009800780002c020000281600001003a00c8
:1038f0003800900001e8a300020032006004980044
:1039000001003700500c98008004eb00090078009b
:103910004f04be0000000600889fbe008a1f78008a
:1039200000047800c8009000680190000000eb00df
:10393000828f50003c0039001800780022002900d6
:1039400002016000e20f5100070032000120200058
:103950000000e0000100350001202400008c700010
:103960000080eb00300037000200260002006000fb
:10397000820f500009003a0038009000808f5000fc
:103980000600390008007800a8ff070080007800d2
:103990000080eb000100e00023003a0018057800e9
:1039a00000c020000000650018003a00a804900044
:1039b0006002200008004000808f540013003a008d
:1039c00000202000ef000700200498000000e00025
:1039d00005003a0029049800490498008904e80089
:1039e00039049800080037000a60a0000a0c78002b
:1039f000400498000120200080804000310498009d
:103a0000400c9800500c98000c0007002800900013
:103a100050049800380090006004980000002600d0
:103a2000180c70000000eb004f0578004f04be003a
:103a30000000060000dc210061003700881f7800cc
:103a4000881221001804e00003003a00f9ff070083
:103a500020c0b300004c78004f047800000006003e
:103a6000889fbe0000047800080078006fff070000
:103a7000800478000004200018006000020032007a
:103a8000280090005a0007000000eb002004980076
:103a9000384090000004e000050035000000fb0005
:103aa0007bf407000000e000010032008084eb009e
:103ab000181090000000e00008003200bff407007a
:103ac0000000e000010032008084eb00181090003c
:103ad000470007000000eb001014980000082000c9
:103ae00018006000150032000001eb006000b80013
:103af000830621000202d00063027a00880f520080
:103b000005003a000000400081804800008041002c
:103b10000008eb000600370061004000e08048002c
:103b20000201e800e80f5000e08f5800f0ff3a0073
:103b3000080078002e0007000e003700000c780007
:103b400000c0eb00304498006002200008004000f4
:103b5000200498004004980050049800400c9800fd
:103b600060049800500c980070049800760044009f
:103b7000000c9800090078004f04be000000060009
:103b8000881f78000004eb006140b800e2ff2f00be
:103b9000f3ff2f00f00007006207210062007800a9
:103ba0000000e00001003200adff07000804e8005b
:103bb000e80f5400f4ff3a004f04780000000600bc
:103bc000010020000100e000080032000100800038
:103bd0000100e000050032008100e90001008800da
:103be0008100d0000200800000b1780000000600d3
:103bf0000000e0002f003200c0017800e38f510088
:103c00002c0036000308a3002a003a003189800006
:103c10000100e00002003200810f5000040031007a
:103c20001100980030898800160037008200780063
:103c3000110190000200e00002003200800f5100ec
:103c4000faff39001102780084824000850f50008d
:103c500018003900808f520003003a0083084200a8
:103c600001007800070037000200e0000300320086
:103c700083014000830f51000e00390012009800ac
:103c800090009800900090000100e00009003200d0
:103c900010014000828f500006003a0042122100bd
:103ca0000009eb001001780011084100910090001c
:103cb0001100980000000600889fbe0000047800f4
:103cc000218980000100e00002003200010078003c
:103cd0000d00370031898000601221000400370098
:103ce000910f5400250036000180e80091009000fb
:103cf0000100e000faff3a0010003700920f540074
:103d00001e0036000280e800100178000200e0008a
:103d1000faff3a0011017800318980006012210019
:103d200004003700910f5400140036000180e800b1
:103d300091009000828f5000faff3a00598980006c
:103d4000888f540001003100880478000900780051
:103d5000360007000000e00004003a00888f54009d
:103d6000050032008904d100f5ff370009187800fa
:103d70009fff0700d2ff37000000eb004f04be009a
:103d800000000600881f7800630440000800a100be
:103d90008000eb00800f540021003600e30f540038
:103da00001003e004800200008007800c2ff070024
:103db0008000eb000000e000190032009000780065
:103dc0009101780064815100880f51000300310097
:103dd00011019000020878000700370008814000b8
:103de00002087800910190001301980010017800fa
:103df0001109140088087800100178000000eb0019
:103e00000200e00004003200920190000300e00094
:103e1000010032000280e800208988008180e800eb
:103e2000010078004f047800000006008000780050
:103e30000000eb000100e000050034000100780004
:103e4000e7f30700e10f400001003a000000eb003b
:103e50000000060000c0da000000060000c0da0022
:103e60000000060000c0da00000006003400f80080
:103e70000203be00820270008502720002f0a600fa
:103e800000f0a6008100e800a10188001500b20042
:103e900008003200105978000402e9000d003200d9
:103ea00061004000fbff39003420ec0000002800d6
:103eb000f8ff3700101978000482e900050032008d
:103ec00062004000fbff39003420ec0000002800b5
:103ed000f8ff37003400f9000601be0000000600bc
:103ee0000300e00007003200a5018000a101880066
:103ef00010427800a50188000402fb00820f5200e6
:103f0000110032008301e900a5018000a1018800b1
:103f100010427800a50188000404e0000800320087
:103f2000000278001000b00000026a004260af009a
:103f300000f0a0000482d2000180b000e8ff37004a
:103f400000002000010020000000060095f6070098
:103f50000400be0000000600020ab900001bb90000
:103f60000200b8008100420081004300000006000a
:103f7000889fbe008a9fbe0030044200b0844a0081
:103f800030054b0090854b006000b1000898be00e2
:103f90000a90be000440e10005c8e10006d0e1003f
:103fa00007d8e10002003100680040001008e80076
:103fb0004f05be004f04be0000000600889fbe00f3
:103fc0008a9fbe003004be002005be0004185400c5
:103fd00005985c0006185d0007985d001100200040
:103fe0000440e10005c8e10006d0e10007d8e10087
:103ff000010039008000eb00108810004f05be0062
:104000004f04be00000006001200fa00889fbe00a8
:104010008a9fbe008c9fbe00e0b79f00f1b79f0053
:1040200082bf9f0093bf9f000605be000404be0030
:104030000000eb00d0b79f00c0b79f00b0b79f0053
:10404000a0b79f0090b79f00000678005fb197006f
:10405000cfb09700820141003fb097000200e0001e
:1040600004003d00370007007e805700c0ff0700b6
:1040700003003700330007007e805700cfff0700a2
:10408000dfb697000d00e0000c0035006fb297001e
:10409000ffb297000fbb97009fbb97001000200056
:1040a000010020006011b8000002720081827200dd
:1040b00002037300838373001b0007000c06e800f3
:1040c00001042000810f5600e0ff3a000d00e000df
:1040d00004003d000802be000a03be007e805700b7
:1040e000a3ff07005fa897000000e00005003a006a
:1040f0001fb29700afb297003fb39700cfb39700be
:10410000090007006fb09700ffb097000fb9970044
:104110009fb997004f06be004f05be004f04be007a
:104120000080fa0000000600010007000000060001
:10413000a4b79f00b5b79f00c6b79f00d7b79f0031
:10414000000006004f09de0082817100b3b79f00b6
:104150004f01de008180400082807000a1b79f0087
:104160008fb097004f09de00000040000200700091
:1041700090b79f007fa897004f01de00818040002c
:104180008280700081b79f000d0007004f3ade006b
:104190000000400004007000f0af9f00080007001e
:1041a0000402420085824a0006034b0087834b00cd
:1041b000dfff07000802be000a03be000000060081
:1041c0002fb29700bfb297004fb39700dfb39700ad
:1041d00000000600881f780018002000881f780063
:1041e00089ff07008f87e9004f0478000000060070
:1041f000801feb0084ff07008f87e90000000600a6
:10420000889fbe008a9fbe00e00f5000e08f5800dc
:10421000e00f5900e08f59000c003d006044b800e9
:104220006055b8000000540081805c0002015d0010
:1042300083815d00180020001500070008003d0084
:10424000180007000004eb00050037000004eb0035
:104250000f00070002003d001200070018002000b8
:10426000dcff07000800e000060032006022b80012
:104270006033b8000000520081805a0002015b00e8
:1042800083815b004f05be004f04be0000000600a6
:10429000e00f5200e08f5a00e00f5b00e08f5b0000
:1042a000000006006044b8006055b80004025400e5
:1042b00085825c0006035d0087835d0000000600c8
:1042c000889fbe008a9fbe008c1f7800e00f5000c0
:1042d000e08f5800e00f5900e08f59000d003d00bd
:1042e0006044b8006055b8000000540081805c0054
:1042f00002015d0083815d001c0020000820e100b8
:1043000009a8e1000ab0e1000bb8e1000d003d0092
:10431000080037000006eb00e00f5200e08f5a0063
:10432000e00f5b00e08f5b0006003d006044b800da
:104330006055b8000402540085825c0006035d00ed
:1043400087835d00aaff07000c00e0000600320032
:104350006022b8006033b8000000520081805a002b
:1043600002015b0083815b004f0678004f05be00b1
:084370004f04be00000006002e
:020000040000fa
:10437800576500006c6300006f6d00006520000049
:10438800746f0000204e000065750000726f000019
:1043980053740000696d000044750000696e0000e8
:1043a8006f2000002d20000062790000204e0000e0
:1043b80065750000726100006c610000787900008a
:1043c8000a00000043680000616e00006e6500008e
:1043d8006c20000070610000726100006d650000d3
:1043e800746500007273000020720000657300009d
:1043f80065740000206300006f6d0000706c0000a1
:1044080065740000652e00000a000000454d00009c
:1044180045520000474500004e4300005920000067
:104428004f46000046200000766900006120000029
:10443800536f000066740000776100007265000029
:104448000d0000002000000043680000616e0000bd
:104458006e6500006c200000312c00002061000017
:104468006d7000006c6900007475000064650000e0
:1044780020690000732000007365000074200000ac
:10448800746f00002025000064200000636f0000a6
:10449800756e0000747300000a0000004368000095
:1044a800616e00006e6500006c200000322c000078
:1044b800206100006d7000006c69000074750000d8
:1044c8006465000020690000732000007365000027
:1044d80074200000746f0000202500006420000094
:1044e800636f0000756e0000747300000a0000001e
:1044f80043680000616e00006e6500006c200000db
:10450800312c000020660000726500007175000003
:10451800656e0000637900002069000073200000c8
:104528007365000074200000746f000020250000ef
:1045380064200000487a00000a0000004368000078
:10454800616e00006e6500006c200000312c0000d8
:10455800206400007572000061740000696f00003b
:104568006e20000072650000736500007420000072
:10457800746f000020300000206d0000730a0000f6
:1045880000430000686100006e6e0000656c00006a
:10459800203200002c2000006672000065710000c7
:1045a800756500006e6300007920000069730000e3
:1045b8002073000065740000207400006f20000064
:1045c80025640000204800007a0a0000004300002b
:1045d800686100006e6e0000656c0000203200000b
:1045e8002c200000647500007261000074690000ee
:1045f8006f6e000020720000657300006574000093
:10460800207400006f200000352000006d7300004a
:104618000a00000043680000616e00006e6500003b
:104628006c200000312c000020700000756c000028
:10463800736500002064000075720000617400005a
:10464800696f00006e20000069730000207300008d
:1046580065740000207400006f20000025640000cd
:1046680020750000730a0000004300006861000024
:104678006e6e0000656c0000203200002c200000e7
:10468800707500006c730000652000006475000000
:1046980072610000746900006f6e000020690000fc
:1046a800732000007365000074200000746f000020
:1046b8002025000064200000757300000a00000037
:1046c80043680000616e00006e6500006c20000009
:1046d800312c0000206900006e7400006572000033
:1046e8002d70000068610000736500002064000000
:1046f8007572000061740000696f00006e20000090
:1047080069730000207300006574000020740000c5
:104718006f2000002564000020750000730a000067
:1047280000430000686100006e6e0000656c0000c8
:10473800203200002c200000696e00007465000023
:10474800722d000070680000617300006520000091
:104758006475000072610000746900006f6e0000eb
:1047680020690000732000007365000074200000b9
:10477800746f00002025000064200000757300009d
:104788000a00000043680000616e00006e650000ca
:104798006c200000312c00002073000074610000c0
:1047a8007274000020640000656c000061790000ec
:1047b8002069000073200000736500007420000069
:1047c800746f000020250000642000006d73000055
:1047d8000a00000043680000616e00006e6500007a
:1047e8006c200000322c000020730000746100006f
:1047f8007274000020640000656c0000617900009c
:104808002069000073200000736500007420000018
:10481800746f000020250000642000006d73000004
:104828000a00000043680000616e00006e65000029
:104838006c200000312c000020700000756c000016
:104848007365000020730000686100007065000057
:1048580020690000732000007365000074200000c8
:10486800746f000020730000796d00006d65000012
:104878007472000069630000616c00000a000000a7
:1048880043680000616e00006e6500006c20000047
:10489800312c000020700000756c0000736500006a
:1048a8002073000068610000706500002069000046
:1048b800732000007365000074200000746f00000e
:1048c80020610000737900006d6d000065740000c0
:1048d80072690000636100006c0a00000043000078
:1048e800686100006e6e0000656c000020320000f8
:1048f8002c200000707500006c730000652000001b
:104908007368000061700000652000006973000092
:104918002073000065740000207400006f20000000
:10492800737900006d6d0000657400007269000005
:10493800636100006c0a0000004300006861000029
:104948006e6e0000656c0000203200002c20000014
:10495800707500006c73000065200000736800002b
:10496800617000006520000069730000207300007a
:1049780065740000207400006f200000617300005f
:10498800796d00006d6500007472000069630000b5
:10499800616c00000a0000005570000064610000ae
:1049a80074650000642000004932000043200000c4
:1049b800736c0000617600006520000061640000ef
:1049c8006472000065730000732000003d20000041
:1049d800256400000a0000004e6f000077200000e8
:1049e800636f00006e6e0000656300007465000070
:1049f80064200000746f000020490000324300006a
:104a0800207300006c6100007665000020610000e2
:104a1800646400007265000073730000203d0000ac
:104a280020250000640a000000250000642c000016
:104a3800004100004d5000004c0000004368000099
:104a4800616e00006e6500006c200000312c0000d3
:104a5800204100004d5000004c2000003d20000087
:104a680025640000206300006f7500006e7400006c
:104a7800730a000000460000524500005100000083
:104a880043680000616e00006e6500006c20000045
:104a9800312c000020460000524500005120000043
:104aa8003d20000025640000204800007a0a00002c
:104ab80000440000555200004e000000436800000a
:104ac800616e00006e6500006c200000312c000053
:104ad80020440000555200004e2000003d200000f8
:104ae8002564000020750000730a000000490000da
:104af800444c00005900000043680000616e00004b
:104b08006e6500006c200000312c00002049000078
:104b1800444c0000592000003d200000256400009e
:104b280020750000730a000000440000454c000096
:104b38005900000043680000616e00006e650000c7
:104b48006c200000312c0000204400004c4500007f
:104b5800592000003d20000025640000206d000061
:104b6800730a000000530000594d00004d0000007a
:104b780043680000616e00006e6500006c20000054
:104b8800312c000020530000594d00004d2000003a
:104b98003d200000256400000a000000454e00008a
:104ba8004142000000430000686100006e6e000092
:104bb800656c0000203100002c200000454e0000ec
:104bc80041420000203d000020250000640a00004a
:104bd80000430000686100006e6e0000656c000014
:104be800203100002c200000756e00006b6e000064
:104bf8006f7700006e200000726500006769000092
:104c080073740000657200000a0000004368000029
:104c1800616e00006e6500006c200000322c000000
:104c2800204100004d5000004c2000003d200000b5
:104c380025640000206300006f7500006e7400009a
:104c4800730a000000430000686100006e6e0000f7
:104c5800656c0000203200002c2000004652000045
:104c680045510000203d0000202500006420000080
:104c7800487a00000a00000043680000616e0000e6
:104c88006e6500006c200000322c000020440000fb
:104c9800555200004e2000003d2000002564000011
:104ca80020750000730a00000043000068610000de
:104cb8006e6e0000656c0000203200002c200000a1
:104cc800494400004c590000203d00002025000008
:104cd80064200000757300000a00000043680000ab
:104ce800616e00006e6500006c200000322c000030
:104cf800204400004c450000592000003d200000e1
:104d080025640000206d0000730a000000430000c5
:104d1800686100006e6e0000656c000020320000c3
:104d28002c200000535900004d4d0000203d00008c
:104d380020250000640a00000043000068610000ac
:104d48006e6e0000656c0000203200002c20000010
:104d5800454e000041420000203d00002025000093
:104d6800640a000000430000686100006e6e0000e5
:104d7800656c0000203200002c200000756e0000d9
:104d88006b6e00006f7700006e20000072650000f7
:104d98006769000073740000657200000a00000073
:104da80043680000616e00006e6500006c20000022
:104db80031200000776900006c6c0000206700005b
:104dc800656e0000657200006174000065200000d7
:104dd8002575000020700000756c000073650000e8
:104de800732e00002e2e00000a0000004368000009
:104df800616e00006e6500006c200000322000002b
:104e0800776900006c6c000020670000656e000088
:104e180065720000617400006520000025750000bf
:104e280020700000756c000073650000732e000090
:104e38002e2e00000a00000043680000616e00008a
:104e48006e6500006c2000003120000068610000e1
:104e580073200000737400006f700000706500001c
:104e6800640a000000430000686100006e6e0000e4
:104e7800656c0000203100002068000061730000ac
:104e8800206e00006f74000020730000746f000033
:104e980070700000656400002e2000004368000068
:104ea800656300006b20000069660000206d00004b
:104eb800616c0000667500006e6300007469000094
:104ec8006f6e00000a00000043680000616e000079
:104ed8006e6500006c200000322000006861000050
:104ee80073200000737400006f700000706500008c
:104ef800640a000000430000686100006e6e000054
:104f0800656c00002032000020680000617300001a
:104f1800206e00006f74000020730000746f0000a2
:104f280070700000656400002e20000043680000d7
:104f3800656300006b20000069660000206d0000ba
:104f4800616c0000667500006e6300007469000003
:104f58006f6e00000a00000043680000616e0000e8
:104f68006e6500006c2000003120000069730000ad
:104f7800206500006e610000626c0000656400003e
:104f88000a00000043680000616e00006e650000c2
:104f98006c200000312000006973000020640000cc
:104fa80069730000616200006c650000640a00001b
:104fb80000430000686100006e6e0000656c000030
:104fc800203200002069000073200000656e000098
:104fd800616200006c650000640a00000043000084
:104fe800686100006e6e0000656c000020320000f1
:104ff80020690000732000006469000073610000ec
:10500800626c0000656400000a000000556e000034
:1050180072650000636f0000676e0000697a000027
:1050280065640000206300006f6d00006d61000082
:105038006e64000020250000730a000000000000d4
:10504800454d000045520000474500004e43000012
:10505800592000004f460000462000005052000032
:105068004553000053450000440d00000043000074
:10507800686100006e6e0000656c0000204e000044
:105088006f2e0000203d000020250000640a00006b
:10509800004100006d7000006c690000747500002c
:1050a80064650000203d0000202500006420000009
:1050b800636f0000756e0000747300000a00000042
:1050c8004672000065710000756500006e6300009f
:1050d800792000003d2000002564000020480000e1
:1050e8007a0a000000440000757200006174000034
:1050f800696f00006e2000003d200000256400005c
:1051080020750000730a0000004900006e7400005a
:10511800657200002d700000686100007365000072
:1051280020640000656c000061790000203d0000eb
:105138002025000064200000757300000a000000ac
:105148005374000061720000742000006465000060
:105158006c610000792000003d20000025640000fb
:10516800206d0000730a000000530000796d0000f4
:105178006d6500007472000069630000616c0000d6
:105188002057000061760000656600006f7200001d
:105198006d2000003d200000256400000a0000008a
:1051a800456e0000616200006c650000642000002c
:1051b8003d200000256400000a0000005065000042
:1051c800726900006f640000203d00002025000087
:1051d800640a000000530000746900006d2000009c
:1051e800496e000064650000666900006e69000091
:1051f800746500006c790000203d00002025000047
:10520800640a0000002d00002d2d00002d2d000047
:105218002d2d00002d2d00002d2d00002d2d00001e
:0c5228002d2d00002d2d00000a000000bc
:020000040000fa
:105234002000fa00d0f92f00300798000040eb005e
:10524400404f98000040eb00004f980030002000d1
:10525400403a880000002300203a88009002200091
:10526400303a8800a0002000700798000000eb008e
:1052740050079800800c2000000f980040c6b3002f
:1052840007e8b70080002000100f980010c0b3009a
:1052940040e8b70000a02500212620006011b800d6
:1052a4001e0a9000840278008502e900050033009c
:1052b4008301d1000281d3008180d3000080d30018
:1052c400f9ff37000000be004040880051408800cc
:1052d40044408000554080007e009000cf80de0076
:1052e4000001be000400be00f3f00700200f980088
:1052f4008f0c0700a2022000c11b2a00408420005a
:10530400f6f1070040842000ae0e070080d1200093
:1053140011c0b3000148780010d2200011c0b300be
:10532400014878007180200091407800e0d120008d
:105334000148780090d12000a1c0b3000148780052
:105344008e089000e16888007e009000804078001c
:10535400a0d120000148780000d2200011c0b30081
:1053640001487800f0d120008040eb00014878002b
:1053740030d220008040eb000148780020d2200089
:105384008040eb000148780080d1200028100700fd
:1053940040d2200021c0b30001487800d0d22000c0
:1053a40011c0b3000148780071802000914078005a
:1053b400a0d220000148780050d22000a1c0b30040
:1053c400014878008e099000436988007e009000af
:1053d4008040780060d2200001487800c0d22000cc
:1053e40011c0b30001487800b0d2200051c0b3000e
:1053f40001487800f0d220008040eb00014878009a
:10540400e0d220008040eb000148780040d2200028
:105414000710070010002000300f98004040800063
:10542400514080008e0a90003e0a90000001be00a8
:105434008500780004007800e40e0700400f98000f
:10544400404080005140800072802000124178006a
:105454008282fb004e0a90000001be0085007800a5
:1054640004007800d90e0700500f980040408000d7
:1054740051408000134280000e0990000299b90047
:1054840002017800820278005e0a90000001be00ea
:105494008500780004007800cc0e0700600f9800a7
:1054a400010037000000000003c8bf00e14f5000b6
:1054b40057053a000368ef000040eb00004f9800e6
:1054c4001600370002c8bf008e48900080cf5000fd
:1054d4000a0031000e4890000080fb008e489000c6
:1054e4008180fb00c2d02000e2c078000141780036
:1054f40021d1200082707800050037000e4890000a
:105504000080fb0021d120000041eb008270780074
:105514000e4890000040e800004f98000e489000ac
:10552400e54f5000e7ff360020d1200010407800fe
:105534000080fb006101b9000080eb008080eb007b
:105544000200400083804800f20120000300200094
:10555400820f5000838f58000e053e00006001004a
:105564001f0037005f003700dc00370023013700dd
:1055740040013700810137009e013700be0137002a
:105584006b023700f40237000405370003053700c7
:105594000205370001053700750337008f03370014
:1055a400fe04370099043700fc043700c7043700b1
:1055b400fa043700f9043700f8043700f704370019
:1055c400f6043700f5043700f4043700f304370019
:1055d400f2043700f1043700f0043700ef04370019
:1055e40002c8bf00e34f5000ee043a0040d120004f
:1055f400104078000004e0002700350030d120007e
:10560400104078000080fb00e10f500003003200de
:10561400e20f500010003200fd04370040d120009a
:105624009040780090d120000148780080d120007b
:105634009040780090d12000104078000080fb005a
:10564400150e070090d120001040780004e8b70040
:105654000568ef000f00370040d12000904078002b
:1056640050d220000148780040d2200090407800b9
:1056740050d22000104078000080fb00060e070086
:1056840050d220001040780004e8b7000568ef000d
:1056940000000000de04370030d120001040780004
