:020000040000fa
:080000000002040000000000f2
:020000040000fa
:0400080016070000d7
:020000040000fa
:04000c0016070000d3
:020000040000fa
:0400100016070000cf
:020000040000fa
:0400140016070000cb
:020000040000fa
:0400180016070000c7
:020000040000fa
:04001c0016070000c3
:020000040000fa
:0400200016070000bf
:020000040000fa
:0400240016070000bb
:020000040000fa
:040028007805000057
:020000040000fa
:04002c0016070000b3
:020000040000fa
:04003000b205000015
:020000040000fa
:04003400660400005e
:020000040000fa
:0400380016070000a7
:020000040000fa
:04003c0016070000a3
:020000040000fa
:040040005a0600005c
:020000040000fa
:04004400a004000014
:020000040000fa
:04004800ea040000c6
:020000040000fa
:04004c001607000093
:020000040000fa
:04005000160700008f
:020000040000fa
:04005400d4020000d2
:020000040000fa
:04005800cc020000d6
:020000040000fa
:04005c001607000083
:020000040000fa
:04006000160700007f
:020000040000fa
:04006400160700007b
:020000040000fa
:040068004803000049
:020000040000fa
:04006c001607000073
:020000040000fa
:04007000160700006f
:020000040000fa
:04007400160700006b
:020000040000fa
:040078001607000067
:020000040000fa
:04007c001607000063
:020000040000fa
:04008000160700005f
:020000040000fa
:04008400160700005b
:020000040000fa
:040088001607000057
:020000040000fa
:04008c006406000006
:020000040000fa
:040090000c07000059
:020000040000fa
:04009400140500004f
:020000040000fa
:040098001607000047
:020000040000fa
:04009c001607000043
:020000040000fa
:0400a000160700003f
:020000040000fa
:0400a400160700003b
:020000040000fa
:0400a8001607000037
:020000040000fa
:0400ac001607000033
:020000040000fa
:0400b000160700002f
:020000040000fa
:0400b400160700002b
:020000040000fa
:0400b8001607000027
:020000040000fa
:0400bc001607000023
:020000040000fa
:0400c000160700001f
:020000040000fa
:0400c400160700001b
:020000040000fa
:0400c8001607000017
:020000040000fa
:0400cc001607000013
:020000040000fa
:0400d000160700000f
:020000040000fa
:0400d400160700000b
:020000040000fa
:0400d8001607000007
:020000040000fa
:0400dc001607000003
:020000040000fa
:0400e00016070000ff
:020000040000fa
:0400e40016070000fb
:020000040000fa
:0400e80016070000f7
:020000040000fa
:0400ec0016070000f3
:020000040000fa
:0400f00016070000ef
:020000040000fa
:0400f40016070000eb
:020000040000fa
:0400f80016070000e7
:020000040000fa
:0400fc0016070000e3
:020000040000fa
:0401000016070000de
:020000040000fa
:0401040016070000da
:020000040000fa
:0401080016070000d6
:020000040000fa
:04010c0016070000d2
:020000040000fa
:0401100016070000ce
:020000040000fa
:0401140016070000ca
:020000040000fa
:0401180016070000c6
:020000040000fa
:04011c0016070000c2
:020000040000fa
:0401200016070000be
:020000040000fa
:0401240016070000ba
:020000040000fa
:0401280016070000b6
:020000040000fa
:04012c0016070000b2
:020000040000fa
:0401300016070000ae
:020000040000fa
:0401340016070000aa
:020000040000fa
:0401380016070000a6
:020000040000fa
:04013c0016070000a2
:020000040000fa
:04014000160700009e
:020000040000fa
:04014400160700009a
:020000040000fa
:040148001607000096
:020000040000fa
:04014c001607000092
:020000040000fa
:04015000160700008e
:020000040000fa
:04015400160700008a
:020000040000fa
:040158001607000086
:020000040000fa
:04015c001607000082
:020000040000fa
:04016000160700007e
:020000040000fa
:04016400160700007a
:020000040000fa
:040168001607000076
:020000040000fa
:04016c001607000072
:020000040000fa
:04017000160700006e
:020000040000fa
:04017400160700006a
:020000040000fa
:040178001607000066
:020000040000fa
:04017c001607000062
:020000040000fa
:04018000160700005e
:020000040000fa
:04018400160700005a
:020000040000fa
:040188001607000056
:020000040000fa
:04018c001607000052
:020000040000fa
:04019000160700004e
:020000040000fa
:04019400160700004a
:020000040000fa
:040198001607000046
:020000040000fa
:04019c001607000042
:020000040000fa
:0401a000160700003e
:020000040000fa
:0401a400160700003a
:020000040000fa
:0401a8001607000036
:020000040000fa
:0401ac001607000032
:020000040000fa
:0401b000160700002e
:020000040000fa
:0401b400160700002a
:020000040000fa
:0401b8001607000026
:020000040000fa
:0401bc001607000022
:020000040000fa
:0401c000160700001e
:020000040000fa
:0401c400160700001a
:020000040000fa
:0401c8001607000016
:020000040000fa
:0401cc001607000012
:020000040000fa
:0401d000160700000e
:020000040000fa
:0401d400160700000a
:020000040000fa
:0401d8001607000006
:020000040000fa
:0401dc001607000002
:020000040000fa
:0401e00016070000fe
:020000040000fa
:0401e40016070000fa
:020000040000fa
:0401e80016070000f6
:020000040000fa
:0401ec0016070000f2
:020000040000fa
:0401f00016070000ee
:020000040000fa
:0401f40016070000ea
:020000040000fa
:0401f80016070000e6
:020000040000fa
:0401fc0016070000e2
:020000040000fa
:0402080016070000d5
:020000040000fa
:04020c0016070000d1
:020000040000fa
:0402100016070000cd
:020000040000fa
:0402140016070000c9
:020000040000fa
:0402180016070000c5
:020000040000fa
:04021c0016070000c1
:020000040000fa
:0402200016070000bd
:020000040000fa
:0402240016070000b9
:020000040000fa
:0402280016070000b5
:020000040000fa
:04022c0016070000b1
:020000040000fa
:0402300016070000ad
:020000040000fa
:0402340016070000a9
:020000040000fa
:0402380016070000a5
:020000040000fa
:04023c0016070000a1
:020000040000fa
:04024000160700009d
:020000040000fa
:040244001607000099
:020000040000fa
:040248001607000095
:020000040000fa
:04024c001607000091
:020000040000fa
:04025000160700008d
:020000040000fa
:040254001607000089
:020000040000fa
:040258001607000085
:020000040000fa
:04025c001607000081
:020000040000fa
:04026000160700007d
:020000040000fa
:040264001607000079
:020000040000fa
:040268001607000075
:020000040000fa
:04026c001607000071
:020000040000fa
:04027000160700006d
:020000040000fa
:040274001607000069
:020000040000fa
:040278001607000065
:020000040000fa
:04027c001607000061
:020000040000fa
:04028000160700005d
:020000040000fa
:040284001607000059
:020000040000fa
:040288001607000055
:020000040000fa
:04028c001607000051
:020000040000fa
:04029000160700004d
:020000040000fa
:040294001607000049
:020000040000fa
:040298001607000045
:020000040000fa
:04029c001607000041
:020000040000fa
:0402a000160700003d
:020000040000fa
:0402a4001607000039
:020000040000fa
:0402a8001607000035
:020000040000fa
:0402ac001607000031
:020000040000fa
:0402b000160700002d
:020000040000fa
:0402b4001607000029
:020000040000fa
:0402b8001607000025
:020000040000fa
:0402bc001607000021
:020000040000fa
:0402c000160700001d
:020000040000fa
:0402c4001607000019
:020000040000fa
:0402c8001607000015
:020000040000fa
:0402cc001607000011
:020000040000fa
:0402d000160700000d
:020000040000fa
:0402d4001607000009
:020000040000fa
:0402d8001607000005
:020000040000fa
:0402dc001607000001
:020000040000fa
:0402e00016070000fd
:020000040000fa
:0402e40016070000f9
:020000040000fa
:0402e80016070000f5
:020000040000fa
:0402ec0016070000f1
:020000040000fa
:0402f00016070000ed
:020000040000fa
:0402f40016070000e9
:020000040000fa
:0402f80016070000e5
:020000040000fa
:0402fc0016070000e1
:020000040000fa
:0403000016070000dc
:020000040000fa
:0403040016070000d8
:020000040000fa
:0403080016070000d4
:020000040000fa
:04030c0016070000d0
:020000040000fa
:0403100016070000cc
:020000040000fa
:0403140016070000c8
:020000040000fa
:0403180016070000c4
:020000040000fa
:04031c0016070000c0
:020000040000fa
:0403200016070000bc
:020000040000fa
:0403240016070000b8
:020000040000fa
:0403280016070000b4
:020000040000fa
:04032c0016070000b0
:020000040000fa
:0403300016070000ac
:020000040000fa
:0403340016070000a8
:020000040000fa
:0403380016070000a4
:020000040000fa
:04033c0016070000a0
:020000040000fa
:04034000160700009c
:020000040000fa
:040344001607000098
:020000040000fa
:040348001607000094
:020000040000fa
:04034c001607000090
:020000040000fa
:04035000160700008c
:020000040000fa
:040354001607000088
:020000040000fa
:040358001607000084
:020000040000fa
:04035c001607000080
:020000040000fa
:04036000160700007c
:020000040000fa
:040364001607000078
:020000040000fa
:040368001607000074
:020000040000fa
:04036c001607000070
:020000040000fa
:04037000160700006c
:020000040000fa
:040374001607000068
:020000040000fa
:040378001607000064
:020000040000fa
:04037c001607000060
:020000040000fa
:04038000160700005c
:020000040000fa
:040384001607000058
:020000040000fa
:040388001607000054
:020000040000fa
:04038c001607000050
:020000040000fa
:04039000160700004c
:020000040000fa
:040394001607000048
:020000040000fa
:040398001607000044
:020000040000fa
:04039c001607000040
:020000040000fa
:0403a000160700003c
:020000040000fa
:0403a4001607000038
:020000040000fa
:0403a8001607000034
:020000040000fa
:0403ac001607000030
:020000040000fa
:0403b000160700002c
:020000040000fa
:0403b4001607000028
:020000040000fa
:0403b8001607000024
:020000040000fa
:0403bc001607000020
:020000040000fa
:0403c000160700001c
:020000040000fa
:0403c4001607000018
:020000040000fa
:0403c8001607000014
:020000040000fa
:0403cc001607000010
:020000040000fa
:0403d000160700000c
:020000040000fa
:0403d4001607000008
:020000040000fa
:0403d8001607000004
:020000040000fa
:0403dc001607000000
:020000040000fa
:0403e00016070000fc
:020000040000fa
:0403e40016070000f8
:020000040000fa
:0403e80016070000f4
:020000040000fa
:0403ec0016070000f0
:020000040000fa
:0403f00016070000ec
:020000040000fa
:0403f40016070000e8
:020000040000fa
:0403f80016070000e4
:020000040000fa
:0403fc0016070000e0
:020000040000fa
:10040000ef8921000ebf22000e01880000000000cd
:10041000000020000000e000020032000001200087
:100420002002880014000700db0307000000e00042
:1004300003003a00207f2400010020000200370062
:100440000000200001002000810f70000100320038
:1004500014000700000020000000e000020032004d
:1004600000000200000000001c220200000000004a
:100470000040da000000fe004440a900c0782000df
:100480000000e0000300320000002000a00188000e
:100490004440a800000006008a1f78008b1f7800e7
:1004a0000000060091018800800478000000eb0045
:1004b0001a003700e284440032a0b4009905ba0063
:1004c000e284440032a0b4009906ba00e2844400f9
:1004d00032a0b4000006eb00476fde00fd07b2005b
:1004e000636ce10003003a00ebff07000000eb0043
:1004f0000a003700606ce10004003a00005deb0088
:100500008b05e900fdff3e00040037006168e10053
:10051000010032000086eb000b00070019c7ba008b
:100520001905ba000e04e00003003a000a00e000da
:10053000e0ff3a0000000600fe07b2009e018800be
:100540008a047800f5ff3700395dba008b05e900b1
:100550000c003200295dba008b05e900080032006a
:100560000c00e00003003a00e284440032a0b40032
:10057000f5ff370019ddba008b05e900faff3a00f4
:100580008904e800e184440032a0b40000000600c1
:1005900000000000000000000000fa008580a900b3
:1005a0000080fa00004006003600f800809fbe0080
:1005b000829fbe00849fbe00869fbe000200fa009c
:1005c0008560a9000040eb00004f78001100370063
:1005d00068030700004f7800000000001e4078000c
:1005e000ed4f50000f0032001e4078000004e00084
:1005f00008003200b04280009e4078000148780038
:100600000000e800b0428800a04280000000e8003e
:10061000a0428800540307000004e000ecff3a0009
:1006200001003700000000001e407800ed4f500030
:1006300010003a000000000001c8bf000004e00004
:10064000fdff3a0010c0b30001e8b700418c200064
:1006500040cc200029050700408c2000b0428800d3
:10066000024020008000eb00408c2000fb040700cb
:100670005428ef000080fa004f03be004f02be0076
:100680004f01be004f00be003600f90000400600da
:1006900000a0fe003600f800849fbe00869fbe00ca
:1006a0003400f80004002000a40188000200fa00d1
:1006b0000040eb00004f7800411080000004200053
:1006c000008060000000e0000300320000108000a5
:1006d000004f780008c2a90040108000620060004e
:1006e0000000e0004c0032004110800000022000b9
:1006f000008060000000e0001d003a000010800053
:10070000004f780010c0b30051e8b70040108000df
:10071000640060000000e0003f00320044c8bf00f9
:100720000004e0000a00320052c8bf000080fb0055
:1007300041e12000614078000080fb00101088003b
:1007400052c8bf000040e80052e8b700030037007d
:1007500004c8bf000080fb001010880000c42900fe
:1007600001002000af2207000782a8002a003700fe
:100770004468ef005268ef0000108000004f7800de
:1007800051c8bf00e14f500006003a001e417800fa
:1007900031852000824878000668ef005168ef003c
:1007a0001d003700618020009140780053c8bf00d1
:1007b00080cf50001400310006c8bf000080fb004d
:1007c0001e41780081d220008270780006c8bf00e8
:1007d0000040e80006e8b700618020009140780002
:1007e00053c8bf0080cf50000b003a005368ef00a1
:1007f00010c0b30003e8b70006c8bf0002e8b700a6
:100800000668ef000400370006c8bf00e54f50003f
:10081000010036000668ef004010800064006000b0
:100820000000e000190032004110800000002800a4
:10083000008060000000e00014003a0044c8bf00df
:100840000004e0000a00320052c8bf000080fb0034
:1008500041e12000614078000080fb00101088001a
:1008600052c8bf000040e80052e8b700030037005c
:1008700005c8bf000080fb001010880000c42900dc
:1008800001002000672207000782a80021852000c0
:100890009140780070ccb30080cf50000200360049
:1008a0005268ef004468ef00401080008600a90005
:1008b0000080fa003400f9004f03be004f02be0072
:1008c0003600f9000080fe0000400600809fbe0058
:1008d0000000fa004ec8bf000040e8004ee8b70034
:1008e000e18420009140780030c6b30080cf5000f2
:1008f0000f0036004fc8bf000040e8004fe8b700c7
:100900004fc8bf00e44f50000800360050c8bf0079
:100910000040e80050e8b70050c8bf00e14f500069
:10092000010036005068ef004f68ef004e68ef009e
:100930008460a9000080fa004f00be00004006005d
:10094000809fbe00821f78000000fa00e016800041
:100950004900de006140600000c0ea0061406000c4
:100960000080fb00610060004900dd00e2168000ad
:10097000f1df2f008100610001007000e0168800a7
:1009800045c8bf000004e0000d0032006016800082
:100990004700de006140600000c0ea006140600086
:1009a0000080fb00610060004700dd0062168000ef
:1009b000f1f72f00810061000100700060168800cf
:1009c00084e0a9000080fa004f0178004f00be00cb
:1009d00000400600809fbe00821f78000000fa00e1
:1009e000e01680004800de006140600000c0ea00c0
:1009f000614060000080fb00610060004800dd0095
:100a0000e2168000f1ef2f0081006100010070000c
:100a1000e01688008500a9000080fa004f017800e8
:100a20004f00be00004006003600f800809fbe0068
:100a3000829fbe00849fbe00869fbe000200fa0017
:100a40000000eb00000f780042c8bf000004e00087
:100a50001f0032000ea3a800000000003018800024
:100a6000700060000000e000fcff3200901a80007f
:100a7000000f78000683a90043c8bf000004a2004d
:100a80000004e0001200320060428000800040005c
:100a9000c0d42000008040001e0878006042800022
:100aa0000000e800604288006142800030062000bb
:100ab000808f5000060036009760a9009f01070054
:100ac00010c0b30043e8b7004c28ef004668ef00c1
:100ad0008760a9000080fa004f03be004f02be00ed
:100ae0004f01be004f00be003600f9000040060076
:100af0003600f800809fbe00829fbe00849fbe002b
:100b0000869fbe000000fa00cc22a800cc42a800bc
:100b1000cce2a800db000700df000700e3000700cd
:100b2000e70007007d010700800107007201200037
:100b300061122a0000862000c10307000086200001
:100b40003e1e07008400a9000080fa004f03be008b
:100b50004f02be004f01be004f00be003600f9003c
:100b6000004006003600f800809fbe00829fbe0055
:100b7000849fbe00869fbe000000fa0011c8bf001f
:100b80000004a2000004e000410032005042800056
:100b90000000e8005042880016c8bf000004e000d2
:100ba0002f00320051428000f0408000808f5000c2
:100bb0000c00310024c8bf000004e0001700320020
:100bc000010c80001041800000804000000c880073
:100bd000310c80000041800000804000300c880013
:100be0000e00370051428000f0408000808f50009e
:100bf0000a003a0024c8bf000004e00007003200e9
:100c0000e0408000000c8800d0408000300c88005c
:100c10002468ef0010c0b30025e8b700c140800091
:100c2000f04080008080500050428000808f500053
:100c30000b003e0025c8bf000004e00008003200a1
:100c4000010c80001041800000805000000c8800e2
:100c5000310c80000041800000805000300c880082
:100c600051428000c0408000808f50000800390051
:100c70001068ef008800070094c0a90081000700f9
:100c80009440a9004a28ef002468ef002568ef008f
:100c9000cc02a9008440a9000080fa004f03be00e6
:100ca0004f02be004f01be004f00be003600f900eb
:100cb000004006000000fa00cc02a80084c0a90091
:100cc0000080fa00004006003600f800809fbe0059
:100cd000829fbe00849fbe00869fbe000000fa0077
:100ce00011c8bf000004a2000004e000410032006f
:100cf000404280000000e8004042880016c8bf0063
:100d00000004e0002f00320041428000604180007a
:100d1000808f50000c00310032c8bf000004e0009a
:100d200017003200610c800080418000008040008c
:100d3000600c8800910c80007041800000804000b1
:100d4000900c88000e003700414280006041800016
:100d5000808f50000a003a0032c8bf000004e00053
:100d60000700320050418000600c88004041800044
:100d7000900c88003268ef0010c0b30033e8b70071
:100d800031418000604180008080500040428000fe
:100d9000808f50000b003e0033c8bf000004e0000d
:100da00008003200610c800080418000008050000b
:100db000600c8800910c8000704180000080500021
:100dc000900c88004142800030418000808f5000ac
:100dd000080039001068ef00390007009740a900ab
:100de000320007009720a9004828ef003268ef0082
:100df0003368ef00ccc2a9008720a9000080fa0068
:100e00004f03be004f02be004f01be004f00be00a8
:100e10003600f900004006000000fa00ccc2a8002d
:100e20008740a9000080fa00004006000040da0078
:100e30000000fe00000178001001e2000200350011
:100e40001061a80011e1a80030088000410880006e
:100e50000200e000010032000089be000000060030
:100e600007e2a9009600a9009620a9008600a90023
:100e70008620a9000000060021108800301088009c
:100e8000000006009440a90080ff2f008421b600d6
:100e90008440a9000000060094c0a90080ff2f0034
:100ea0008a21b60084c0a900000006009720a9008e
:100eb00080ff2f009021b6008720a90000000600c7
:100ec0009740a90080ff2f009621b6008740a90017
:100ed000000006008440a900e7006000f28f2f00a8
:100ee000c808dd0023058000030161006800600080
:100ef000028170004300de0022058800610060006e
:100f0000b1ff2f004200dd00a2048000828060005b
:100f100081007000a10488000000060084c0a900c0
:100f2000e7006000f28f2f00c808dd003305800065
:100f30000301610068006000028170004300de0070
:100f40003205880061006000f1fb2f004600dd00e3
:100f5000a20480008280600081007000a1048800eb
:100f6000000006008720a900e7006000f2f82f00cb
:100f7000c408dd0083058000030161006800600093
:100f8000028170004300de0082058800610060007d
:100f9000f1df2f004900dd00b20480008280600094
:100fa00081007000b1048800000006008740a9009d
:100fb000e7006000f28f2f00c808dd008305800085
:100fc0000301610068006000028170004300de00e0
:100fd0008205880061006000f1bf2f004a00dd003b
:100fe000b20480008280600081007000b10488003b
:100ff0000000060083ff2f0044182000148a6100bf
:10100000010c8800120c8800200c880000000600eb
:1010100083ff2f00a4182000148a6100310c88007f
:10102000420c8800500c88000000060083ff2f004f
:1010300004192000148a6100610c8800720c880079
:10104000800c88000000060083ff2f006419200038
:10105000148a6100910c8800a20c8800b00c8800f2
:10106000000006009820a90061e2a9008820a900dc
:10107000000006008820a900e7006000f2f82f00b9
:10108000c408dd00a3058000030161006800600062
:10109000028170004300de00a2058800610060004c
:1010a000d1ff2f0000004000c20480008280600059
:1010b00081007000c1048800000006001013880041
:1010c0002113880002138800000006000080eb0056
:1010d0006002ab000700320060c2a9006342ab00af
:1010e0000200320040138000000006004013800020
:1010f000f00fb200000006006342ab0001003a00ae
:10110000f00fb20040138800000006009460a900b0
:1011100005e1a9008460a9000000060094e0a90090
:1011200011e1a90084e0a900000006009500a900d3
:1011300013e1a9008500a900000006009760a9003e
:101140001fe1a9008760a900000006008460a900d3
:10115000e7006000f2ff2800cc08dd0023058000d6
:1011600003016100680060000281700071ff2f00c0
:1011700022058800a2048000828060008100700047
:10118000a10488000000060084e0a900e7006000d8
:10119000f2ff2800cc08dd00330580000301610068
:1011a00068006000028170004300de0032058800a4
:1011b00061006000f1f72f004700dd00a20480000d
:1011c0008280600081007000a10488000000060099
:1011d0008500a900e700600082ff2f006800600022
:1011e00043058000030161004300de0002817000be
:1011f00061006000420588004800dd00f1ef2f002b
:10120000a20480008280600081007000a104880038
:10121000000006008760a900e7006000f2ff2800d8
:10122000cc08dd00830580000301610068006000d8
:10123000028170004300de008205880061006000ca
:10124000f17f2f004b00dd00b2048000828060003f
:1012500081007000b1048800000006000021ef004a
:101260001108880020088800000006000621ef0011
:1012700061088800800888001061a900000006004d
:101280000a21ef007108880090088800000006001d
:101290001421ef00d1088800f00888001e61a90021
:1012a00000000600000888000000060030088800e2
:1012b000000006005008880000000600a008880012
:1012c00000000600001020002202b6000000e90025
:1012d0004f00de00000006008560a900e700600006
:1012e0008580a900cc08dd0000017800f3ff28000c
:1012f0000207b20044058000848161004411de00d1
:1013000083817000e800600043058800c308de00a8
:1013100083ff2f00e180600054058000848161001c
:10132000cb08dd00830171000008b200530588007e
:10133000f27f2f004700de00a3048000030161005c
:1013400061006000028170004c00dd00a204880092
:10135000f1ff2e00a40480008480600081007000f2
:10136000a1048800000006001011800061406000a8
:10137000000006000011800066006000e60f5000cb
:1013800002003a0030118000000006003011800099
:10139000f00fb200000006000000050003f0a200fc
:1013a000889fbe008a9fbe008c1f7800090107003d
:1013b000100133006450e1004f0032006420e1006e
:1013c0005200320003826c0007003b000905d00088
:1013d0000306d000820f54000c065d0002003900a5
:1013e00002003200890178000306780085825500ea
:1013f00004003d000003fd008103fd008502ea00ba
:101400008b854200840f720002003b0060001000d8
:10141000e08018006011b8000005eb007a28e100b8
:101420000a00390006007800c75ddd00f707b2004a
:10143000878075002d003700828171000a017800d5
:10144000610560008180d1000080d3008502e90041
:10145000f9ff3b00060440008784480002003b007f
:1014600060041400e0841c000988a3000700320017
:101470008a81710082817100610164008904d10058
:101480000884d3008b05e800170037000978a30013
:1014900013003a000b00e000130034008b05e90054
:1014a0000804440089844c000a4474000978a300ad
:1014b0000d003a000b00e000070034008b05e90046
:1014c0000804440089844c0001003a000b0020000d
:1014d0000978a300f7ff32000001eb00020037009b
:1014e000828171000a0178007f0007000cf0a700dc
:1014f00001f0a000c80037006420e10002003a00bb
:10150000838f6c00c80033000801be000200be00db
:10151000c1003700889fbe008a9fbe008c1f7800e4
:10152000ac000700b300330003866c006450e10098
:101530002e0032006420e100330032006150e100ef
:101540002f0032006120e100310032008585550016
:10155000eb07b00009002000080420000500370058
:101560000804440089844c000a003100060343004b
:1015700087834b000001530081815b00f8ff33003b
:101580000203be000800a0000804440089844c0047
:10159000f6ff3900c639dd00830173000100320017
:1015a000130020008904d1000884d3000998a30007
:1015b000050032000800a7000300a0008904d10044
:1015c0000884d3008b05e8008904d1000884d30087
:1015d0000001eb000281d2004300070001f0a100ee
:1015e0000cf0a70001f0a0008b0037006420e100a0
:1015f0008d0032000801be000200be00f7ff370078
:101600006120e100880032006000b800f3ff37007d
:101610000000200001f82700f0ff3700839f6800da
:101620000100e00002003d0060001000e0801800b2
:101630000300e00002003d0060011100e08119009c
:10164000b00007004f00e00002003b006000100007
:10165000e0801800000006000001be0048000700fe
:101660000470a70003f0a1006509b1001600320064
:101670000d0035006828e10006003500f0ff2f005e
:10168000f1ff27000300e00013003b0001002800e9
:101690000000050000004000818048008502e9004c
:1016a000fcff3a0008003700f88f420002003c00bf
:1016b0008000eb00000005008100d1000080d30015
:1016c0008502e800fcff3a000300e00002003b0056
:1016d00060001000e0801800000006004f89de0066
:1016e000820178009700370081002000618055005a
:1016f0000b003d000b00200061fe2f000100e10007
:101700001d00340082817100610164008904d100f0
:101710000884d3000000e800faff3a0071002000be
:1017200061006400030070000200600009003200e4
:1017300061044400e0844c000988a50005003200e3
:101740008b05e8006808e10002003a008904d10036
:101750000884d300f20f20000258e10005003d008c
:10176000c75ddd00f907b2008980750008007800c8
:10177000000006000bf827008b0078000000050031
:10178000c70ade00f107b200f50fb2000800320010
:10179000e1cf4200020032000170a00024000500e9
:1017a000810f7000010032000408050044000500ac
:1017b000810f700002003a00140005008502e90064
:1017c0000000400081c04800fcff3b000170a00009
:1017d000240005000004be00e9ff07000003be006e
:1017e0000405be000200be00e5ff0700844f75003f
:1017f000000006000200be006450e1000500360053
:101800006420e100020036000968a30001003a00ec
:101810000800be000160a0004f0678004f05be0022
:101820004f04be0000000600f0ff2f00f1ff27006c
:10183000f9ff3700889fbe008a9fbe008c1f78008a
:10184000e4ff0700ebff330003866c006450e10007
:10185000240032006420e100270032006150e100e2
:10186000220032006120e100210032008b8542001d
:10187000eb07b1000134b800003ab8000804420098
:1018800089844a00013ab8000030b80088804000de
:1018900009014a0004003300000040008180480034
:1018a000020149008b05e900c909dd0083017000d0
:1018b0000100320013002000c814de004814dd00cf
:1018c0004709de001200b200c808de00088470007c
:1018d00085ff070001f0a1000cf0a70001f0a000b7
:1018e000cdff37006120e100cfff32000801be00cc
:1018f0000200be00f7ff37006150e100fcff3a0034
:10190000c9ff37006022b800060220000000d000a6
:101910008180d2000482d2008582d2000000a00023
:101920000202520083825a00030031000202420088
:1019300083824a000000a1000603e900f3ff3a0099
:1019400000000600881f7800030478000300e00010
:1019500007003d0060001000e080180060011900e1
:10196000e081190002003b0001f02d000300370068
:101970000400070008f0a70001f0a0004f04780061
:1019800000000600889fbe008a9fbe000082700093
:101990000402710004827100260032000004be00bf
:1019a0000200be006011b8006b0920009502200003
:1019b0000182cf000a0039000541b1000082cf004a
:1019c000070039000541b1000982cf000400390049
:1019d0000541b1000882cf00010039000541b10086
:1019e00005425200120032000a003b008281710061
:1019f000610164008100d1000080d3008984d3009c
:101a00000884d3008b05e8000442e800f7ff3a00a1
:101a1000070037000804440089844c000000480097
:101a2000818048008b05e9000442e900f9ff3a0093
:101a30002dff07004f05be004f04be00000006004a
:101a40008001780002003700b15978000201e900f6
:101a50000200e000fcff3a00000006008001780070
:101a600002003700815978000201e9000200e0001d
:101a7000fcff3a0000000600889fbe0000047800ca
:101a8000207c80000000e000010032000000010026
:101a900020f820000048eb00307c80000000e000cf
:101aa00001003200000001008004eb00d8848800af
:101ab000e98488004f04be000000060002003700e1
:101ac0000204e0000b00320081017800000278007f
:101ad00030417800b14f5100f9ff32001000200072
:101ae00014427800934f5200030031000080eb0055
:101af000000006000000eb00000006000001780076
:101b0000b1417800035978000304e000fcff3a007b
:101b10000000060080007800010178003104e00038
:101b2000fdff3a000000510000000600889fbe0043
:101b3000810478000000e00002003a00a8848000e0
:101b400001003700000478000800be006c030700a5
:101b5000000444001804e00004003a0020092100b9
:101b6000a08488000004eb00070037000800be00d6
:101b700052030700000044001004e000010032009e
:101b80000058eb00a0848800080078004f04be00d5
:101b900000000600e4874700889fbe008a9fbe00c1
:101ba0008c1f78008e1f78000005780001077800f0
:101bb000020678000e00e00001003a006e87570030
:101bc0008a0578008b047800890578003b4478000a
:101bd0000800fb00d20007000000e000f9ff3a0017
:101be000d0c2b300804f54000300320000c0e900af
:101bf000804f540002003a008904e80001003700d9
:101c0000004478000c0178008e007800090078000c
:101c1000290007009e8f540001003a000a0f780047
:101c20009e0f550003003a00e00f5000e08f58006f
:101c30000f003a00b2c2b300824f540004003a00d1
:101c4000e00f5000e08f580015003d0008003700fd
:101c5000d2c2b300824f540011003a0002002000ab
:101c600003002800820f5000838f58000a003600be
:101c700020022000b0848800f0ff2f00f1ff270031
:101c8000d2c2b300824f540005003a000000200089
:101c9000010028000200370060001000e0801800fa
:101ca0004f0778004f0678004f05be004f04be0076
:101cb0004f00b10000000600ee874700889fbe007d
:101cc0008a9fbe008c9fbe008e1f7800f0b79f00d9
:101cd0000106780082057800000478000805780085
:101ce0000a047800b84678000d00fb008c0007005d
:101cf0000000e000f9ff3a00d0c2b30080cf5600e8
:101d00000300320000c0e90080cf560002003a0014
:101d10000a05e80001003700804678000b00e0006b
:101d200005003500e18f550003003200400220001d
:101d3000808f5500060034006044b8000c00e000bd
:101d4000700032007fb09700000e78006d00370001
:101d50000b00e0000e003200f08f55001a003a0030
:101d600000c3b3009a4f100017003a001a409000c9
:101d700081c7b300814f50000300320081c5b3001a
:101d8000814f500010003a000a85e8000e0037002d
:101d9000ab00200000c3b3009a4f10000a003a00c5
:101da0001a40900081c7b300814f500004003200f8
:101db0008b00200081c5b300814f500002003a0023
:101dc0000a85e8000b0120000a0078000002780074
:101dd0000400780001c3b300b0cf1000fbff320055
:101de000040778006044b800b4b79f000d003700c6
:101df000c100210081405000c1ef9f006159b9002e
:101e00000800be00be0407004fea97000401fb0073
:101e1000cf91de00c8b79f00d9b79f0002044000f1
:101e2000838448008e0278003e00fb0085bf9f003f
:101e3000430007000b01780080007800c0002100fb
:101e4000880207008fba97000000e000e8ff3a0020
:101e50003fb29700850f550005003a006044b80076
:101e60000c00e00027003200ffb29700240037008a
:101e7000048252001003210060c07d000000fb00be
:101e8000000252001700330011003a004fe997009a
:101e90000200fb00cf80de000000540081805c0067
:101ea000800f5400818f5c00090039006159b9002e
:101eb00085bf9f0093fe07008fba97004fb1970030
:101ec000dfb19700820f5000838f58000500320069
:101ed00020022000b08488000084eb008084eb00a6
:101ee00005003700d0c2b30080cf560002003a0090
:101ef00060041400e0841c000c00e00001003200cb
:101f0000050e78000800be004f0778004f06be009f
:101f10004f05be004f04be00ef00b10000000600f8
:101f20006900e100040035006d00e10003003400a9
:101f30000002b100010032000000050010000500a1
:101f4000800078001104b100030035009101b10058
:101f500001003c000050a00000000600c08480008a
:101f60000000e000010032000000010060092100d3
:101f700000000600881f7800207c80000000e00040
:101f80000100320000000100307c80000000e00011
:101f9000010032000000010020f820001004e000e1
:101fa00024003a00d0848000e18480008800200072
:101fb000d26026009301200051040700f2352f0063
:101fc000e3c6230000004100818049000804e900c5
:101fd000f7ff3a00d2602600930120004804070072
:101fe000f2352f00e3c62300000041008180490044
:101ff000c241dd00c2f82000028141000089be001c
:102000000804e80002022000820f5400f1ff3a00a9
:10201000d0848800e1848800408080005180800066
:10202000407c8800517c880011c0b30020f820005b
:1020300001487800d260260093012000d0848000ff
:10204000e18480002e040700f2352f00e3c6230050
:102050000002410081824900d4848800e584880020
:1020600080f82000100078007f0160004211dd0040
:10207000c0f82000000141001200be00407c880032
:10208000517c88000489be000100780000f0a100a6
:102090004f04780000000600881f780002047800d2
:1020a0000801780066fe0700080040004f04780031
:1020b000000006000000fa00881f78000004780085
:1020c000ea8157003fb9970088007800c0042100da
:1020d000070007000000e000020035008040eb0030
:1020e000017478004f0478000080fa0000000600b8
:1020f0006200fa00889fbe008a1f78000005780001
:1021000081047800020478008300780080f92f00b1
:102110000f004000f50307009a979f00a9979f00c2
:102120000000eb00b09f9f001885fb008a04fb00b5
:102130000a05ea004f55de0050022000808f54004f
:102140000d003200e10f55000b003a000a01780043
:10215000880078002f9097009f919700030001005e
:10216000a0979f000000e0008e0032003f9897008b
:102170000000e800b09f9f000a04440050022000c5
:10218000808f5400040032000900e000e6ff3a00ae
:102190003f989700840037000000eb00909f9f005d
:1021a000809f9f00f0979f00e0979f00d0979f002f
:1021b000c0979f0007003700c108210001005000b0
:1021c000000040000108210061007800df989700be
:1021d00001007000d09f9f008804780009047800f7
:1021e000384578008a00fb00c0082100a7010700dd
:1021f0000000e000f0ff3a00a1c2b300814f55009b
:102200000e003a00cf8897000180e900c08f9f0040
:1022100010007800c09f9f000000e00005003d0016
:102220000000ea00c09f9f005f9897000020a00078
:10223000d09f9f000904e8000f003700c09f9f0057
:102240000000eb0005003700f2ff2700820f50006e
:10225000020032006a01b9000280400009047800df
:1022600088047800b900fb000103b100e98f500039
:10227000f5ff3600c09f9f00e0c2b300984f1000ea
:10228000020032000080eb0019003700a0c2b3004a
:10229000d84f100007003a00cf8897000180e9006e
:1022a000c08f9f0010007800a09f9f000804e800e6
:1022b000100037000000eb00a09f9f00880078000e
:1022c00005003700f3ff2700830f500002003200a3
:1022d0006a02b90004004100010478008800780017
:1022e0003101fb000203b100e90f5100f5ff360098
:1022f000a09f9f00984478008900fb008007210080
:10230000620107000000e000020032000804e8005b
:10231000010037008044eb00c97f9f0080c6b300f6
:1023200080cf540004003a0098cf14000a003a000d
:102330006640500006003700c0c6b30080cf54008e
:1023400005003a0098cf140003003a0065404000b1
:10235000c07f9f000804e8001801fb00e3fb2f008a
:102360008f81410081f92f008f804000a0f92f005c
:102370000f004000100007000000e00009003a00d4
:10238000e1fb2f008f804000a0f92f000f004000dc
:102390009a0207000000e000020035000804e8008f
:1023a00061ff37000080eb004f0578004f04be004e
:1023b0000080fa0000000600889fbe008a1f780097
:1023c00000047800e0c6b300804f5100c100320025
:1023d00015003c006b405000804f5100240032003b
:1023e0000a003c0070405000804f5100fa0032005b
:1023f00065404000804f51006800320050c2b30079
:10240000804f51000b013a000701370040c6b3006e
:10241000804f51001b00320065404000804f51004a
:1024200004013a001700370030c7b300804f510055
:10243000e900320007003c0064405000804f51002a
:10244000560032000040e800804f5100f9003a0089
:10245000d300370050c7b300804f51004f00320007
:1024600063404000804f5100f2003a004b003700bb
:102470001181e9008208780078009000124178000c
:10248000ea00370028609000c4c6b300844f5000b3
:1024900007003a00110278006400520080087800ba
:1024a0001002be004fabde0086037800110037003b
:1024b00014c7b300844f500003003200a4c6b30019
:1024c000844f500006003a00110278006800520064
:1024d000800878003002be002003be0005003700ef
:1024e0001180e9008008780010027800cfa2de0099
:1024f000612bb900049cbe000694be0028609000c9
:1025000081c6b300814f50000d00320021c6b300d8
:10251000814f500004003a000402fb00cfa2de000d
:10252000612bb9000800370041c7b300814f50004c
:1025300003003200e6c04000814f500004003a0022
:10254000cfa2de00612bb900049cbe000694be0041
:102550003802be002803be0078009000d1c2b3004c
:10256000e00f5200e08f5a00e00f5b00e08f5b004d
:1025700008003500881090000118a3000200320006
:10258000b1c2b300030037000108a3004c003200c1
:1025900001c2b300817178004700370028609000c5
:1025a000c4c6b300844f500006003a001102780000
:1025b00064005200800878001002be006033b8004a
:1025c0001100370014c7b300844f500003003200dd
:1025d000a4c6b300844f500006003a0011027800f0
:1025e00068005200800878003002be002003be0060
:1025f000050037001180e90080087800100278009b
:102600008002eb006033b800049cbe000694be005c
:102610002860900081c6b300814f50000d00320049
:1026200021c6b300814f500004003a000482fb0031
:102630008002eb006033b8000800370041c7b300e8
:10264000814f500003003200e6c04000814f50002f
:1026500004003a008002eb006033b800049cbe0026
:102660000694be00081090000038a3001400320049
:102670003802be002803be00e00f5200e08f5a006f
:10268000e00f5b00e08f5b000d00320080c7b300fd
:10269000804f51000300320080c5b300804f5100cd
:1026a00007003a007800900001c3b3008171780000
:1026b0000000e800827178000000e80070049800d3
:1026c0007800900080814100630498008240780087
:1026d0003e00370028619000c3c6b3001180e900b6
:1026e000834f5100220032000a003c00e4c1510037
:1026f000834f51002500320083c1e800834f510011
:1027000013003200e8c15100834f51001e003a000f
:102710000a00370043c7b300834f51001b0032004b
:10272000e6c14100834f510018003200e9c1510059
:10273000834f510014003a000500370080087800ec
:1027400010007800485c900008487800410037008d
:102750008008780010007800680a9000cfa2de00a0
:10276000612bb9000498be000690be003900370006
:10277000800878001000780068099000cf91de0092
:102780000288be00330037001180e900800878001d
:1027900010007800680c9000080878002d003700c1
:1027a0001180e9008008780010027800cfa2de00d6
:1027b000612bb900049cbe000694be007800900016
:1027c000808141006304980081c7b300080078004d
:1027d0005b0007001f0037001180e90080087800c7
:1027e000100578006a049800d80c90000900e000f9
:1027f00004003d000a007800c6fc07008004780051
:1028000007003700090178008000eb000a0078001b
:10281000140007000000e000010032008a045000ac
:10282000190c98000b003700780090008271780036
:102830000600370078009000808141000204e0002b
:1028400001003a0052c2b300824978000000e8005b
:10285000700498000000eb004f0578004f04be00a4
:102860000000060003003700b0cf10000500320062
:102870000201e900800178000200e000faff3a005e
:102880000000050003007800000006000200370089
:102890000304e00006003200000178000200780026
:1028a000b041780081cf5100f9ff3a0001003700b4
:1028b0000001eb0002007800000006000001780033
:1028c0000700370086cf520002003a000080510016
:1028d00000000600344378000604e000f9ff3a00e7
:1028e00082017800b24278000504e0000200320064
:1028f00001027800f7ff3700008051000000060059
:102900000001780008003700810278003543780024
:102910000604e00002003a000080510000000600ba
:10292000864f5200f9ff3a00820178003242780067
:102930000404e000f4ff3a000080510000000600ab
:10294000fc874700889fbe008a9fbe008c9fbe0008
:102950008e1f78000006780080c5b30080cf50003d
:102960000a0032007740400080cf50000a00320059
:102970006940400080cf50000b00320070062100fb
:1029800080bf9f00ae0020000a00370062052100d2
:1029900082bf9f00060037007306210083bf9f009f
:1029a0008e002000030037007406210084bf9f00c2
:1029b0000e0120003c02be002c03be000605be0036
:1029c0000404be0040c6b30080cf500003003200b4
:1029d0006540400080cf50000b003a00e00f5200ed
:1029e000e08f5a00e00f5b00e08f5b0006003d00c7
:1029f0006000b8006011b8000404500085845800dd
:102a00000605590087855900e80f57000400320079
:102a100040002000f00f570038003a000100370056
:102a200030002000e00f5400e08f5c00e00f5d00fc
:102a3000e08f5d0004003a00dc0890008d0120006a
:102a40000100e000060032008e00e900888060008e
:102a50008fba9700e5c07800f1ef9f007d0120005c
:102a6000800078008100e900050033008b05d1006b
:102a70000a85d3008984d3000884d300f9ff370086
:102a8000089ebe000a96be00120037008d06e900bf
:102a90008e00e900848060000fb99700e2c17800e1
:102aa00082fd2f000f01410003f17e0080007800bd
:102ab0008100e900050033008783d1000683d3003d
:102ac0008582d3000482d300f9ff3700049ebe0044
:102ad0000696be003c02be002c03be00e00f520072
:102ae000e08f5a00e00f5b00e08f5b008b0034004a
:102af0000d00e000e5ff3c00880037002c609000ee
:102b000081c6b300814f50000b00320006003c002c
:102b10000004e00008003200e6c05000814f500081
:102b20004e003a0004003700c1c6b300814f500088
:102b30004a003a00210037000800e00004003a0093
:102b40005c0890008d0120000000e00006003200cb
:102b5000110009000e84d8000fb99700e2c0780078
:102b6000f1ef9f007d012000110009000e84d800c4
:102b70000a003700110009000e04d8008d06e90094
:102b80000e81b900020454008fb8970061417c00a7
:102b900081fd2f008f80400082f07e0000047800cd
:102ba0000800e000020032000d00e000f1ff3c00f0
:102bb000cfc4de00614db90025003700e00f54009e
:102bc000e08f5c0004003a005c0890008d0120005a
:102bd0000000e000070032006171b9000800be008b
:102be000440107008fb99700e3417800f3ef9f009d
:102bf0007d0120006171b9000800be0041fb0700a3
:102c00000b0037006171b9000800be0083fa0700ad
:102c10008d06e90000f1b900020454000fba9700d4
:102c2000e4427c0084fd2f000f02420005f27e008a
:102c30000004be00e00f5000e08f58000200320098
:102c40000d00e000efff3c004fcdde008a0578006c
:102c5000089ebe000a96be0030003700e00f540008
:102c6000e08f5c00e00f5d00e08f5d0004003a0043
:102c70005c0890008d0120000000e0000900320097
:102c80006172b900612bb9000800be000a01be00e4
:102c9000c10107000fba970064427800f4ef9f006b
:102ca0007d0120006172b900612bb9000800be00ef
:102cb0000a01be00b10107000d0037006172b900c2
:102cc000612bb9000800be000a01be00b601070072
:102cd0008d06e90000f2b900040454008fba970091
:102ce00065427c0085fd2f008f82420084f27e00c9
:102cf000009ebe000296be003c04be002c05be0035
:102d0000e00f5400e08f5c00e00f5d00e08f5d009d
:102d1000020034000d00e000e8ff3c00e80f57001f
:102d200010003a000c1090000038a3000d00320093
:102d3000f78f560006003e0085fd2f008f8242006f
:102d4000e5c07e0000c3b30080cf50000500320014
:102d50008d06e90002c3b30081fd2f008f80400083
:102d600082f07e0078811600120e98006c009000b0
:102d700083fd2f008f8141008d80410030fb0700d3
:102d80001c089000dc089000810f500006003d00f8
:102d900000805000000e98000c1090000040a10030
:102da000001698000f0037000100e0000d003d0004
:102db0008c109000f4806000f08f500009003a0001
:102dc0007c099000fc009000810051000c099000eb
:102dd00082805000008050004240a9000100340071
:102de000000e98004f0778004f06be004f05be004a
:102df0004f04be00cf01b100000006000400fa003d
:102e0000889fbe008a9fbe008c1f78000004780057
:102e100001067800f80d900078009000808555003c
:102e2000080890008085550018089000808555009e
:102e3000280890008085550038089000808555004e
:102e400048089000808555000002220090bf9f0036
:102e500000032300a0bf9f00081090000028a300db
:102e600015003a000b00e000130034000b05780059
:102e70008a047800e20f5500010036002900200086
:102e8000c801900009017800ee80570058009000ba
:102e900003000100500498000000e0008c003200a4
:102ea0006808900009004000600c98000905550072
:102eb0004240a900eeff3c00780190000200e000d3
:102ec0000c003400c80190008c007800580090007d
:102ed00003000100500498008080eb000000e00037
:102ee0007c003200e80890007800900000804000ec
:102ef000600c9800880c90000900e000110034007c
:102f000009057800e28f5400010036002a002000f5
:102f1000c80190000a017800ec805700580090002a
:102f200003000100500498000000e0006800320037
:102f3000680890000a004000600c98008a845400e1
:102f4000edff3700180990000200e0000c0034008b
:102f5000c8019000e80090005800900003000100b4
:102f6000500498008080eb000000e000590032001f
:102f7000e80890001808900000804000600c98005d
:102f8000a80c90000900e000110034000905780049
:102f9000e28f5400010036002a002000c801900092
:102fa0000a017800ec8057005800900003000100ef
:102fb000500498000000e0004500320068089000ce
:102fc0000a004000600c98008a845400edff37002e
:102fd000380990000200e0000e003400e800900084
:102fe0001808900080804000c801900058009000b0
:102ff00003000100500498008080eb000000e00016
:1030000034003200e808900038089000008040004a
:10301000600c9800c80c90000900e000110034001a
:1030200009057800e28f5400010036002a002000d4
:10303000c80190000a017800ec8057005800900009
:1030400003000100500498000000e000200032005e
:10305000680890000a004000600c98008a845400c0
:10306000edff3700081090008000eb000028a3005f
:10307000180032000b00e000160034008b047800ca
:1030800009057800e28f5400010036002a00200074
:10309000c80190000a017800ee80570058009000a7
:1030a00003000100500498000000e0000800320016
:1030b000680890000a004000600c98008a84540060
:1030c0004240a900eeff3c008000eb000100370009
:1030d0008080eb00010078004f0678004f05be00ad
:1030e0004f04be000080fa000000060001087800ce
:1030f0000000060003fa07000400be0000000600fe
:10310000020ab900001bb9000200b80081004200a9
:103110008100430000000600889fbe008a9fbe0019
:1031200030044200b0844a0030054b0090854b00cb
:103130006000b1000898be000a90be000440e100a3
:1031400005c8e10006d0e10007d8e1000200310027
:10315000680040001008e8004f05be004f04be00a4
:1031600000000600889fbe008a9fbe003004be009b
:103170002005be000418540005985c0006185d0088
:1031800007985d00110020000440e10005c8e1003f
:1031900006d0e10007d8e100010039008000eb0013
:1031a000108810004f05be004f04be00000006004e
:1031b0001200fa00889fbe008a9fbe008c9fbe004e
:1031c000e0b79f00f1b79f0082bf9f0093bf9f00b1
:1031d0000605be000404be000000eb00d0b79f004f
:1031e000c0b79f00b0b79f00a0b79f0090b79f00e7
:1031f0000006eb005fb19700cfb09700820141005d
:103200003fb097000200e00004003d0037000700d7
:103210007e805700c0ff070003003700330007001f
:103220007e805700cfff0700dfb697000d00e0005b
:103230000c0035006fb29700ffb297000fbb9700ec
:103240009fbb970010002000010020006011b80013
:103250000002720081827200020373008383730094
:103260001b0007000c06e80001042000810f560037
:10327000e0ff3a000d00e00004003d000802be003f
:103280000a03be007e805700a3ff07005fa89700d7
:103290000000e00005003a001fb29700afb29700af
:1032a0003fb39700cfb39700090007006fb09700b6
:1032b000ffb097000fb997009fb997004f06be0067
:1032c0004f05be004f04be000080fa00000006005b
:1032d0000100070000000600a4b79f00b5b79f00db
:1032e000c6b79f00d7b79f00000006004f09de0059
:1032f00082817100b3b79f004f01de0081804000e2
:1033000082807000a1b79f008fb097004f09de0048
:10331000000040000200700090b79f007fa8970057
:103320004f01de00818040008280700081b79f00e5
:103330000d0007004f3ade0000004000040070005e
:10334000f0af9f00080007000402420085824a0097
:1033500006034b0087834b00dfff07000802be0017
:103360000a03be00000006002fb29700bfb297000c
:103370004fb39700dfb3970000000600881f780066
:1033800018002000881f780089ff07008f87e90058
:103390004f04780000000600801feb0084ff070048
:1033a0008f87e90000000600889fbe008a9fbe004c
:1033b000e00f5000e08f5800e00f5900e08f5900f7
:1033c0000c003d006044b8006055b8000000540097
:1033d00081805c0002015d0083815d001800200097
:1033e0001500070008003d00180007000004eb006e
:1033f000050037000004eb000f00070002003d004d
:103400001200070018002000dcff07000800e000a1
:10341000060032006022b8006033b800000052009d
:1034200081805a0002015b0083815b004f05be0072
:103430004f04be0000000600e00f5200e08f5a006b
:10344000e00f5b00e08f5b00000006006044b80006
:103450006055b8000402540085825c0006035d00dc
:1034600087835d0000000600889fbe008a9fbe0023
:103470008c1f7800e00f5000e08f5800e00f5900db
:10348000e08f59000d003d006044b8006055b80061
:103490000000540081805c0002015d0083815d00ba
:1034a0001c0020000820e10009a8e1000ab0e100aa
:1034b0000bb8e1000d003d00080037000006eb00ee
:1034c000e00f5200e08f5a00e00f5b00e08f5b00de
:1034d00006003d006044b8006055b8000402540086
:1034e00085825c0006035d0087835d00aaff0700fc
:1034f0000c00e000060032006022b8006033b80023
:103500000000520081805a0002015b0083815b0051
:103510004f0678004f05be004f04be0000000600b5
:020000040000fa
:10352000576500006c6300006f6d000065200000af
:10353000746f0000204e000065750000726f00007f
:1035400053740000696d000044750000696e00004e
:103550006f200000763200002e310000202d000088
:1035600020620000792000004e65000075720000a6
:10357000616c000061780000790a000000430000df
:10358000686100006e6e0000656c00002070000035
:1035900061720000616d00006574000065720000da
:1035a0007320000072650000736500007420000045
:1035b000636f00006d7000006c65000074650000b2
:1035c0002e0a0000004500004d4500005247000053
:1035d000454e000043590000204f000046460000c1
:1035e0002076000069610000205300006f66000033
:1035f0007477000061720000650d0000002000007b
:1036000000430000686100006e6e0000656c000001
:10361000203100002c200000616d0000706c000063
:103620006974000075640000652000006973000083
:103630002073000065740000207400006f200000fb
:1036400025640000206300006f7500006e740000a8
:10365000730a000000430000686100006e6e000005
:10366000656c0000203200002c200000616d00001d
:10367000706c000069740000756400006520000033
:10368000697300002073000065740000207400005e
:103690006f20000025640000206300006f750000ab
:1036a0006e740000730a00000043000068610000af
:1036b0006e6e0000656c0000203100002c200000c0
:1036c0006672000065710000756500006e630000a1
:1036d0007920000069730000207300006574000009
:1036e000207400006f2000002564000020480000c6
:1036f0007a0a000000430000686100006e6e00005e
:10370000656c0000203100002c2000006475000072
:1037100072610000746900006f6e0000207200008a
:103720006573000065740000207400006f200000c5
:10373000302000006d7300000a00000043680000a4
:10374000616e00006e6500006c200000322c0000ed
:10375000206600007265000071750000656e000053
:103760006379000020690000732000007365000089
:1037700074200000746f0000202500006420000009
:10378000487a00000a00000043680000616e0000f3
:103790006e6500006c200000322c000020640000e8
:1037a0007572000061740000696f00006e200000f7
:1037b000726500007365000074200000746f0000e3
:1037c00020350000206d0000730a00000043000057
:1037d000686100006e6e0000656c00002031000022
:1037e0002c200000707500006c7300006520000044
:1037f0006475000072610000746900006f6e000063
:103800002069000073200000736500007420000030
:10381000746f000020250000642000007573000014
:103820000a00000043680000616e00006e65000041
:103830006c200000322c000020700000756c00002d
:103840007365000020640000757200006174000060
:10385000696f00006e200000697300002073000093
:1038600065740000207400006f20000025640000d3
:1038700020750000730a000000430000686100002a
:103880006e6e0000656c0000203100002c200000ee
:10389000696e000074650000722d00007068000001
:1038a0006173000065200000647500007261000013
:1038b000746900006f6e0000206900007320000032
:1038c0007365000074200000746f00002025000064
:1038d00064200000757300000a00000043680000c7
:1038e000616e00006e6500006c200000322c00004c
:1038f000206900006e740000657200002d700000e9
:1039000068610000736500002064000075720000ab
:1039100061740000696f00006e2000006973000090
:103920002073000065740000207400006f20000008
:103930002564000020750000730a000000430000a9
:10394000686100006e6e0000656c000020310000b0
:103950002c200000737400006172000074200000cd
:10396000646500006c61000079200000697300004c
:103970002073000065740000207400006f200000b8
:1039800025640000206d0000730a00000043000061
:10399000686100006e6e0000656c0000203200005f
:1039a0002c2000007374000061720000742000007d
:1039b000646500006c6100007920000069730000fc
:1039c0002073000065740000207400006f20000068
:1039d00025640000206d0000730a00000043000011
:1039e000686100006e6e0000656c00002031000010
:1039f0002c200000707500006c7300006520000032
:103a000073680000617000006520000069730000a9
:103a10002073000065740000207400006f20000017
:103a2000737900006d6d000065740000726900001c
:103a3000636100006c0a0000004300006861000040
:103a40006e6e0000656c0000203100002c2000002c
:103a5000707500006c730000652000007368000042
:103a60006170000065200000697300002073000091
:103a700065740000207400006f2000006173000076
:103a8000796d00006d6500007472000069630000cc
:103a9000616c00000a00000043680000616e0000d5
:103aa0006e6500006c200000322c000020700000c9
:103ab000756c0000736500002073000068610000f1
:103ac000706500002069000073200000736500002d
:103ad00074200000746f000020730000796d0000f6
:103ae0006d6500007472000069630000616c000085
:103af0000a00000043680000616e00006e6500006f
:103b00006c200000322c000020700000756c00005a
:103b1000736500002073000068610000706500009c
:103b2000206900007320000073650000742000000d
:103b3000746f000020610000737900006d6d00005b
:103b40006574000072690000636100006c0a000087
:103b5000005500007064000061740000656400009e
:103b60002049000032430000207300006c61000017
:103b7000766500002061000064640000726500004a
:103b800073730000203d000020250000640a00003f
:103b9000004e00006f770000206300006f6e000091
:103ba0006e6500006374000065640000207400000e
:103bb0006f2000004932000043200000736c0000b9
:103bc00061760000652000006164000064720000fe
:103bd00065730000732000003d2000002564000094
:103be0000a000000256400002c000000414d000088
:103bf000504c000000430000686100006e6e000041
:103c0000656c0000203100002c200000414d0000b8
:103c1000504c0000203d00002025000064200000e2
:103c2000636f0000756e0000747300000a000000ee
:103c3000465200004551000000430000686100004a
:103c40006e6e0000656c0000203100002c2000002a
:103c50004652000045510000203d00002025000094
:103c600064200000487a00000a000000445500006b
:103c7000524e000000430000686100006e6e0000bc
:103c8000656c0000203100002c200000445500002d
:103c9000524e0000203d000020250000642000005e
:103ca000757300000a000000494400004c590000f0
:103cb00000430000686100006e6e0000656c00004b
:103cc000203100002c200000494400004c59000025
:103cd000203d0000202500006420000075730000d6
:103ce0000a000000444500004c5900000043000059
:103cf000686100006e6e0000656c000020310000fd
:103d00002c200000444c000045590000203d0000dc
:103d100020250000642000006d7300000a000000f0
:103d2000535900004d4d0000004300006861000041
:103d30006e6e0000656c0000203100002c20000039
:103d4000535900004d4d0000203d0000202500008b
:103d5000640a0000004500004e41000042000000df
:103d600043680000616e00006e6500006c2000007a
:103d7000312c0000204500004e4100004220000090
:103d80003d200000256400000a0000004368000098
:103d9000616e00006e6500006c200000312c000098
:103da000207500006e6b00006e6f0000776e0000e3
:103db00020720000656700006973000074650000f0
:103dc000720a000000430000686100006e6e00008f
:103dd000656c0000203200002c200000414d0000e6
:103de000504c0000203d0000202500006420000011
:103df000636f0000756e0000747300000a0000001d
:103e000043680000616e00006e6500006c200000d9
:103e1000322c0000204600005245000051200000d6
:103e20003d20000025640000204800007a0a0000c0
:103e300000430000686100006e6e0000656c0000c9
:103e4000203200002c20000044550000524e00009b
:103e5000203d000020250000642000007573000054
:103e60000a00000043680000616e00006e650000fb
:103e70006c200000322c000020490000444c00005f
:103e8000592000003d20000025640000207500003e
:103e9000730a000000430000686100006e6e0000bd
:103ea000656c0000203200002c200000444c000013
:103eb00045590000203d000020250000642000003e
:103ec0006d7300000a00000043680000616e00008e
:103ed0006e6500006c200000322c000020530000b2
:103ee000594d00004d2000003d20000025640000d9
:103ef0000a00000043680000616e00006e6500006b
:103f00006c200000322c0000204500004e410000d3
:103f1000422000003d200000256400000a0000004f
:103f200043680000616e00006e6500006c200000b8
:103f3000322c0000207500006e6b00006e6f0000d8
:103f4000776e000020720000656700006973000052
:103f500074650000720a0000004300006861000000
:103f60006e6e0000656c00002031000020770000bc
:103f7000696c00006c200000676500006e65000041
:103f800072610000746500002025000075200000ab
:103f9000707500006c730000657300002e2e000029
:103fa0002e0a000000430000686100006e6e0000f1
:103fb000656c00002032000020770000696c000072
:103fc0006c200000676500006e65000072610000f3
:103fd0007465000020250000752000007075000049
:103fe0006c730000657300002e2e00002e0a000086
:103ff00000430000686100006e6e0000656c000008
:104000002031000020680000617300002073000070
:10401000746f000070700000656400000a0000000a
:1040200043680000616e00006e6500006c200000b7
:104030003120000068610000732000006e6f0000f6
:1040400074200000737400006f7000007065000041
:10405000642e00002043000068650000636b0000d0
:1040600020690000662000006d6100006c660000a1
:10407000756e000063740000696f00006e0a000036
:1040800000430000686100006e6e0000656c000077
:1040900020320000206800006173000020730000df
:1040a000746f000070700000656400000a0000007a
:1040b00043680000616e00006e6500006c20000027
:1040c0003220000068610000732000006e6f000065
:1040d00074200000737400006f70000070650000b1
:1040e000642e00002043000068650000636b000040
:1040f00020690000662000006d6100006c66000011
:10410000756e000063740000696f00006e0a0000a5
:1041100000430000686100006e6e0000656c0000e6
:10412000203100002069000073200000656e00004f
:10413000616200006c650000640a0000004300003a
:10414000686100006e6e0000656c000020310000a8
:1041500020690000732000006469000073610000a2
:10416000626c0000656400000a0000004368000003
:10417000616e00006e6500006c20000032200000bf
:1041800069730000206500006e610000626c000031
:10419000656400000a00000043680000616e0000d2
:1041a0006e6500006c200000322000006973000082
:1041b0002064000069730000616200006c6500000b
:1041c000640a000000520000616d00007069000088
:1041d0006e67000020690000732000006469000021
:1041e00073610000626c0000656400000a0000005a
:1041f000526100006d700000696e000067200000d1
:1042000069730000206500006e610000626c0000b0
:10421000656400000a000000556e00007265000031
:10422000636f0000676e0000697a0000656400003b
:10423000206300006f6d00006d6100006e6400007f
:1042400020250000730a000000000000454d00001a
:1042500045520000474500004e4300005920000031
:104260004f46000046200000505200004553000019
:1042700053450000440d0000004300006861000049
:104280006e6e0000656c0000204e00006f2e000076
:10429000203d000020250000640a000000410000cd
:1042a0006d7000006c6900007475000064650000aa
:1042b000203d00002025000064200000636f000006
:1042c000756e0000747300000a0000004672000062
:1042d00065710000756500006e63000079200000c4
:1042e0003d20000025640000204800007a0a0000fc
:1042f000004400007572000061740000696f0000e6
:104300006e2000003d2000002564000020750000a4
:10431000730a0000004900006e740000657200001e
:104320002d700000686100007365000020640000cb
:10433000656c000061790000203d00002025000030
:1043400064200000757300000a0000005374000030
:104350006172000074200000646500006c61000060
:10436000792000003d20000025640000206d000041
:10437000730a000000530000796d00006d650000b5
:104380007472000069630000616c00002057000037
:1043900061760000656600006f7200006d2000000d
:1043a0003d200000256400000a000000456e00006a
:1043b000616200006c650000642000003d20000088
:1043c000256400000a0000005065000072690000ca
:1043d0006f640000203d000020250000640a0000fa
:1043e00000530000746900006d200000496e000059
:1043f00064650000666900006e6900007465000075
:104400006c790000203d000020250000640a0000b7
:10441000002d00002d2d00002d2d00002d2d000061
:104420002d2d00002d2d00002d2d00002d2d000024
:084430002d2d00000a00000020
:020000040000fa
:104438002200fa00d0f92f00300798000040eb0066
:10444800404f98000040eb00004f98000000eb0040
:104458007007980030002000403a880000002300d0
:10446800203a880090022000303a8800a0002000fe
:10447800000f98000000eb0050079800800c200007
:10448800100f980040c6b3000ae8b700800020006b
:10449800200f980010c0b3005ce8b70000a025000a
:1044a800212620006011b8002e0a900084027800ae
:1044b8008502e900050033008301d1000281d300a1
:1044c8008180d3000080d300f9ff37000000be00d0
:1044d800604088007140880064408000754080001a
:1044e8000e089000cf80de000001be000400be0070
:1044f80048f40700300f9800650d0700f20220000d
:1045080001a92900008620004bf50700008620003d
:10451800c80f070040d3200011c0b300014878003d
:10452800d0d3200011c0b30001487800a18020003a
:1045380091407800a0d320000148780050d3200093
:10454800a1c0b30001487800c0d3200011c0b30057
:1045580001487800c0d320001041780040d32000e3
:104568009040780050d32000104078000080fb0075
:10457800e50f07009e089000c16988000e089000aa
:104588008040780060d320000148780064408000b3
:104598007540800060d32000104078000080fb0048
:1045a8008000eb000001be000400be0019f4070003
:1045b800300f98000000eb003af307003e08900027
:1045c8000000e9008000780050fb2d0025f307006b
:1045d800b0d320008040eb0001487800f0d32000e1
:1045e8008040eb0001487800e0d320008040eb00d9
:1045f8000148780040d320000112070000d42000b1
:1046080021c0b3000148780090d4200011c0b30045
:1046180001487800a18020009140780060d42000f3
:104628000148780010d42000a1c0b30001487800e8
:1046380080d4200011c0b30001487800c0d3200006
:104648001041780000d420009040780010d4200059
:10465800104078000080fb00ab0f07009e09900017
:10466800236a88000e0890008040780020d420003b
:1046780001487800644080007540800020d4200004
:10468800104078000080fb008000eb000001be00b5
:104698000400be00dff30700300f98000000eb00b5
:1046a80002f307003e0890000000e900800078004f
:1046b800d0fb2d00f0f2070070d4200051c0b300e9
:1046c80001487800b0d420008040eb000148780011
:1046d800a0d420008040eb000148780000d42000de
:1046e800c711070010002000400f980060408000ac
:1046f800714080009e0a90004e0a90000001be00a2
:1047080085007800040078003a100700500f9800e0
:104718006040800071408000a28020001241780033
:104728008282fb005e0a90000001be0085007800ce
:10473800040078002f100700600f98006040800088
:1047480071408000f34280001e0990000299b90070
:1047580002017800820278006e0a90000001be0013
:10476800850078000400780022100700700f980078
:10477800010037000000000003c8bf00e14f5000ef
:10478800ab053a000368ef000040eb00004f9800cb
:104798001600370002c8bf008e48900080cf500036
:1047a8000a0031000e4890000080fb008e489000ff
:1047b8008180fb0082d22000e2c0780001417800ad
:1047c800e1d2200082707800050037000e48900082
:1047d8000080fb00e1d220000041eb0082707800ed
:1047e8000e4890000040e800004f98000e489000e6
:1047f800e54f5000e7ff3600e0d220000d0f07001c
:10480800a0c0b300210f0700e0d2200010407800bc
:104818000080fb006101b9000080eb008080eb00a4
:104828000200400083804800f201200003002000bd
:10483800820f5000838f58005c053e000060010025
:104848001f00370064003700e100370028013700f7
:104858004501370086013700b3013700dd01370015
:104868008a0237001f033700520537005105370009
:10487800500537004f053700a4033700be03370043
:104888004c053700c80437004a053700ff043700d5
:104898004805370047053700460537004505370006
:1048a80044053700430537002a053700410537001e
:1048b800400537003f0537003e0537003d05370006
:1048c80002c8bf00e34f50003c053a0000d3200067
:1048d8009040780010c8b30080cf50002b003e00f5
:1048e800f0d22000104078000080fb00e10f50005b
:1048f80003003200e20f5000120032004c0537006e
:1049080000d320009040780050d320000148780060
:10491800c0d320001041780040d320009040780098
:1049280050d32000104078000080fb00f60e0700ee
:1049380050d320001040780004e8b7000568ef0065
:104948001100370000d320009040780010d42000d8
:104958000148780080d420001041780000d420005d
:104968009040780010d42000104078000080fb00b0
:10497800e50e070010d420001040780004e8b700c6
:104988000568ef000000000029053700f0d220007c
:10499800104078000080fb00e10f50000300320057
:1049a800e20f5000060032002105370050d32000e6
:1049b8001040780004e8b7000568ef0005003700ec
:1049c80010d420001040780004e8b7000568ef0014
:1049d800000000001605370002c8bf00e34f500072
:1049e800f8043a0000d3200010407800e24f50004d
:1049f8006400360000d320009040780040c6b30021
:104a080080cf50005f003e00f0d2200010407800b8
:104a18000080fb00e10f500003003200e20f50005d
:104a28002c0032005600370000d320009040780058
:104a380060d3200001487800644080007540800001
:104a480060d32000104078000080fb008000eb005d
:104a58000001be000400be00eef20700300f98000f
:104a68000000eb000ff207003e0890000000e9008c
:104a78008000780050fb2d00faf1070060d3200079
:104a88001040780004e8b7000568ef00b0d32000b4
:104a9800104078000080fb000017980060d32000c9
:104aa800104078000080fb00823e200080017800e2
:104ab800110009000301d8008e129000808f520067
:104ac80003003500b0d320008040eb000148780097
:104ad8002b00370000d320009040780020d420001d
:104ae80001487800644080007540800020d4200090
:104af800104078000080fb008000eb000001be0041
:104b08000400be00c3f20700300f98000000eb005d
:104b1800e6f107003e0890000000e90080007800f8
:104b2800d0fb2d00d4f1070020d4200010407800dd
:104b380004e8b7000568ef0070d420001040780042
:104b48000080fb000017980020d420001040780057
:104b58000080fb00823e20008001780011000900df
:104b68000301d8008e129000808f52000300350098
:104b780070d4200051c0b300014878000000000044
:104b880012003700f0d22000104078000080fb00af
:104b9800e10f500003003200e20f5000060032001f
:104ba800a304370060d320001040780004e8b70061
:104bb8000568ef000500370020d420001040780079
:104bc80004e8b7000568ef0000000000980437000b
:104bd80002c8bf00e44f50007c043a0000d3200014
:104be800104078000080fb00100f980010d32000c0
:104bf800104078000080fb004800dd009e0890000f
:104c080001007000100f98009e089000007d2000a1
:104c1800808f50001d003e00f0d220001040780028
:104c28000080fb00e10f500003003200e20f50004b
:104c38000b0032007e0437009e089000c16988008e
:104c4800c06980000040780004e8b700c0698000af
:104c58004800de000040780005e8b7000a00370089
:104c68009e099000236a8800206a8000004078002e
:104c780004e8b700206a80004800de0000407800a1
:104c880005e8b7000000000069043700f0d22000f2
:104c9800104078000080fb00e10f50000300320054
:104ca800e20f50000900320061043700c06980003b
:104cb8000040780004e8b700c06980004800de00c2
:104cc8000040780005e8b70008003700206a800037
:104cd8000040780004e8b700206a80004800de0041
:104ce8000040780005e8b7000000000050043700d5
:104cf80002c8bf00e34f500036043a00f0d220004b
:104d0800104078000080fb00e10f500003003200e3
:104d1800e20f50000a0032004504370000d320009b
:104d280090407800a0d3200001487800a0d320004c
:104d38001040780004e8b7000568ef000900370064
:104d480000d320009040780060d42000014878000b
:104d580060d420001040780004e8b7000568ef0030
:104d6800000000003204370002c8bf00e34f5000c3
:104d78001a043a00f0d22000104078000080fb00ae
:104d8800e10f500003003200e20f50001c00320017
:104d98002704370000d3200090407800b0d32000cb
:104da80001487800b0d32000104078000080fb0054
:104db8000017980060d32000104078000080fb00a6
:104dc80000004000823e20008001780011000900a8
:104dd8000301d8008e129000808f52000300340027
:104de800b0d320008040eb0001487800b0d3200009
:104df8001040780004e8b7000568ef001b00370092
:104e080000d320009040780070d42000014878003a
:104e180070d42000104078000080fb000017980034
:104e280020d42000104078000080fb0000004000e3
:104e3800823e200080017800110009000301d8009b
:104e48008e129000808f52000300340070d420002e
:104e58008040eb000148780070d4200010407800b2
:104e680004e8b7000568ef0000000000f003370011
:104e780002c8bf00e34f5000da033a00f0d2200026
:104e8800104078000080fb00e10f50000300320062
:104e9800e20f500012003200e503370000d3200073
:104ea80090407800c0d3200001487800c0d320008b
:104eb8001041780040d320009040780050d3200063
:104ec800104078000080fb008f0d0700c0d3200041
:104ed8001040780004e8b7000568ef0011003700bb
:104ee80000d320009040780080d42000014878004a
:104ef80080d420001041780000d420009040780031
:104f080010d42000104078000080fb007e0d0700c0
:104f180080d420001040780004e8b7000568ef004e
:104f280000000000c203370002c8bf00e34f500072
:104f3800ae033a0000d3200010407800e74f50003d
:104f48001f00360000d320009040780070c7b300df
:104f580080cf50001a003e0000d320001040780097
:104f68000080fb00404088004040800080007800be
:104f7800b0c0b300b80d0700700798007e0090001d
:104f88000000e00002003200a0012000404088003c
:104f9800b1ef070000502300c10020009f10070058
:104fa80040408000f90d0700404080000040780034
:104fb80004e8b7000568ef00000000009c03370014
:104fc800404080000040780004e8b7000568ef0022
:104fd800970337004468ef0010c0b30042e8b700f9
:104fe80002c8bf00e24f500082033a00f0d220000e
:104ff800104078000080fb00e10f500003003200f1
:10500800e20f50003c00320077003700604080001b
:1050180071408000823e2000030020007df10700df
:10502800400f98006040800071408000c269800095
:10503800820278004e0a90000001be0085007800c8
:1050480004007800eb0d0700500f980060408000c6
:1050580071408000a2d32000124178008282fb00b8
:105068005e0a90000001be00850078000400780008
:10507800e00d0700600f9800c0d3200010407800b2
:10508800e14f500003003a0010002000f042880071
:105098000200370020002000f042880060408000b5
:1050a80071408000c3698000f24280000299b90013
:1050b80002017800820278006e0a90000001be00aa
:1050c8008500780004007800ca0d0700700f98006a
:1050d80040d32000104078000080fb0000027800d8
:1050e800fe0990006e099000de0890004e089000be
:1050f800e90e07003b0037006040800071408000e7
:10510800823e20000300200042f10700400f980073
:105118006040800071408000226a8000820278002e
:105128004e0a90000001be00850078000400780057
:10513800b00d0700500f980060408000714080005b
:1051480062d42000124178008282fb005e0a90003f
:105158000001be008500780004007800a50d070056
:10516800600f980080d4200010407800e14f500074
:1051780003003a0010002000f042880002003700c7
:1051880020002000f04288006040800071408000cc
:10519800236a8000f24280000299b9000201780077
:1051a800820278006e0a90000001be008500780037
:1051b800040078008f0d0700700f980000d42000bd
:1051c800104078000080fb0000027800fe09900083
